{
  "contracts/PriceFetcher.sol": {
    "PriceFetcher": {
      "abi": [
        {
          "inputs": [
            {
              "internalType": "contract ITenexOracle",
              "name": "_oracle",
              "type": "address"
            },
            {
              "internalType": "address",
              "name": "_USDC",
              "type": "address"
            }
          ],
          "stateMutability": "nonpayable",
          "type": "constructor"
        },
        {
          "anonymous": false,
          "inputs": [
            {
              "indexed": true,
              "internalType": "address",
              "name": "token",
              "type": "address"
            },
            {
              "indexed": false,
              "internalType": "uint256",
              "name": "price",
              "type": "uint256"
            }
          ],
          "name": "PriceFetched",
          "type": "event"
        },
        {
          "inputs": [
            {
              "internalType": "address",
              "name": "_caller",
              "type": "address"
            }
          ],
          "name": "add_caller",
          "outputs": [],
          "stateMutability": "nonpayable",
          "type": "function"
        },
        {
          "inputs": [
            {
              "internalType": "bool",
              "name": "is_connector",
              "type": "bool"
            },
            {
              "internalType": "address[]",
              "name": "_tokens",
              "type": "address[]"
            }
          ],
          "name": "add_tokens",
          "outputs": [],
          "stateMutability": "nonpayable",
          "type": "function"
        },
        {
          "inputs": [
            {
              "internalType": "address",
              "name": "",
              "type": "address"
            }
          ],
          "name": "callers",
          "outputs": [
            {
              "internalType": "bool",
              "name": "",
              "type": "bool"
            }
          ],
          "stateMutability": "view",
          "type": "function"
        },
        {
          "inputs": [
            {
              "internalType": "address",
              "name": "_USDC",
              "type": "address"
            }
          ],
          "name": "change_USDC",
          "outputs": [],
          "stateMutability": "nonpayable",
          "type": "function"
        },
        {
          "inputs": [
            {
              "internalType": "contract ITenexOracle",
              "name": "_oracle",
              "type": "address"
            }
          ],
          "name": "change_oracle",
          "outputs": [],
          "stateMutability": "nonpayable",
          "type": "function"
        },
        {
          "inputs": [
            {
              "internalType": "address",
              "name": "_owner",
              "type": "address"
            }
          ],
          "name": "change_owner",
          "outputs": [],
          "stateMutability": "nonpayable",
          "type": "function"
        },
        {
          "inputs": [
            {
              "internalType": "uint256",
              "name": "_src_len",
              "type": "uint256"
            },
            {
              "internalType": "uint256",
              "name": "_src_offset",
              "type": "uint256"
            }
          ],
          "name": "fetchPrices",
          "outputs": [],
          "stateMutability": "nonpayable",
          "type": "function"
        },
        {
          "inputs": [
            {
              "internalType": "bool",
              "name": "is_connector",
              "type": "bool"
            }
          ],
          "name": "get_tokens",
          "outputs": [
            {
              "internalType": "address[]",
              "name": "results",
              "type": "address[]"
            }
          ],
          "stateMutability": "view",
          "type": "function"
        },
        {
          "inputs": [],
          "name": "oracle",
          "outputs": [
            {
              "internalType": "contract ITenexOracle",
              "name": "",
              "type": "address"
            }
          ],
          "stateMutability": "view",
          "type": "function"
        },
        {
          "inputs": [],
          "name": "owner",
          "outputs": [
            {
              "internalType": "address",
              "name": "",
              "type": "address"
            }
          ],
          "stateMutability": "view",
          "type": "function"
        },
        {
          "inputs": [
            {
              "internalType": "address",
              "name": "_caller",
              "type": "address"
            }
          ],
          "name": "remove_caller",
          "outputs": [],
          "stateMutability": "nonpayable",
          "type": "function"
        },
        {
          "inputs": [
            {
              "internalType": "bool",
              "name": "is_connector",
              "type": "bool"
            },
            {
              "internalType": "uint256[]",
              "name": "_indices",
              "type": "uint256[]"
            }
          ],
          "name": "remove_tokens",
          "outputs": [],
          "stateMutability": "nonpayable",
          "type": "function"
        }
      ],
      "evm": {
        "bytecode": {
          "linkReferences": {},
          "object": "608060405234801561001057600080fd5b50604051610cb7380380610cb783398101604081905261002f91610082565b600080546001600160a01b039384166001600160a01b03199182161790915560018054821633179055600580549290931691161790556100bc565b6001600160a01b038116811461007f57600080fd5b50565b6000806040838503121561009557600080fd5b82516100a08161006a565b60208401519092506100b18161006a565b809150509250929050565b610bec806100cb6000396000f3fe608060405234801561001057600080fd5b50600436106100d45760003560e01c80637dc0d1d011610081578063c6a26fd51161005b578063c6a26fd5146101d4578063e82fac45146101e7578063e84ef543146101fa57600080fd5b80637dc0d1d0146101835780638a28db2c146101ae5780638da5cb5b146101c157600080fd5b80637ad545db116100b25780637ad545db1461012a5780637bbf4a3f1461013d5780637d8756e31461017057600080fd5b8063253c8bd4146100d9578063357da5c8146100ee578063614b243814610101575b600080fd5b6100ec6100e736600461089f565b61020d565b005b6100ec6100fc36600461089f565b610237565b61011461010f3660046108d8565b610261565b60405161012191906108f3565b60405180910390f35b6100ec61013836600461089f565b61033c565b61016061014b36600461089f565b60026020526000908152604090205460ff1681565b6040519015158152602001610121565b6100ec61017e36600461089f565b610366565b600054610196906001600160a01b031681565b6040516001600160a01b039091168152602001610121565b6100ec6101bc36600461098c565b61038f565b600154610196906001600160a01b031681565b6100ec6101e23660046109df565b61048d565b6100ec6101f536600461089f565b6105ed565b6100ec61020836600461098c565b610619565b6102156106ab565b600180546001600160a01b0319166001600160a01b0392909216919091179055565b61023f6106ab565b600080546001600160a01b0319166001600160a01b0392909216919091179055565b6060600082610271576003610274565b60045b805490915067ffffffffffffffff81111561029157610291610a01565b6040519080825280602002602001820160405280156102ba578160200160208202803683370190505b50915060005b8154811015610335578181815481106102db576102db610a17565b9060005260206000200160009054906101000a90046001600160a01b031683828151811061030b5761030b610a17565b6001600160a01b03909216602092830291909101909101528061032d81610a43565b9150506102c0565b5050919050565b6103446106ab565b600580546001600160a01b0319166001600160a01b0392909216919091179055565b61036e6106ab565b6001600160a01b03166000908152600260205260409020805460ff19169055565b6103976106ab565b6000836103a55760036103a8565b60045b905060005b8281101561048657815482906103c590600190610a5c565b815481106103d5576103d5610a17565b6000918252602090912001546001600160a01b0316828585848181106103fd576103fd610a17565b905060200201358154811061041457610414610a17565b9060005260206000200160006101000a8154816001600160a01b0302191690836001600160a01b031602179055508180548061045257610452610a75565b600082815260209020810160001990810180546001600160a01b03191690550190558061047e81610a43565b9150506103ad565b5050505050565b6001546001600160a01b03163314806104b557503360009081526002602052604090205460ff165b6104be57600080fd5b600080546001600160a01b031663fe6b9b4c846104db81866106c4565b6040518363ffffffff1660e01b81526004016104f8929190610a8b565b600060405180830381865afa158015610515573d6000803e3d6000fd5b505050506040513d6000823e601f3d908101601f1916820160405261053d9190810190610ae5565b9050815b61054b8484610ba3565b8110156105e7576003818154811061056557610565610a17565b6000918252602090912001546001600160a01b03167f204db94462f9eb6932709f0dec7c52f4efa8eddf8c60ec4c2dd0798b5492b110836105a68685610a5c565b815181106105b6576105b6610a17565b60200260200101516040516105cd91815260200190565b60405180910390a2806105df81610a43565b915050610541565b50505050565b6105f56106ab565b6001600160a01b03166000908152600260205260409020805460ff19166001179055565b6106216106ab565b60008361062f576003610632565b60045b905060005b82811015610486578184848381811061065257610652610a17565b9050602002016020810190610667919061089f565b81546001810183556000928352602090922090910180546001600160a01b0319166001600160a01b03909216919091179055806106a381610a43565b915050610637565b6001546001600160a01b031633146106c257600080fd5b565b6004546060906106d49084610ba3565b6106df906001610ba3565b67ffffffffffffffff8111156106f7576106f7610a01565b604051908082528060200260200182016040528015610720578160200160208202803683370190505b509050815b61072f8484610ba3565b8110156107a3576003818154811061074957610749610a17565b6000918252602090912001546001600160a01b0316826107698584610a5c565b8151811061077957610779610a17565b6001600160a01b03909216602092830291909101909101528061079b81610a43565b915050610725565b50825b600182516107b49190610a5c565b8110156108315760046107c78583610a5c565b815481106107d7576107d7610a17565b9060005260206000200160009054906101000a90046001600160a01b031682828151811061080757610807610a17565b6001600160a01b03909216602092830291909101909101528061082981610a43565b9150506107a6565b5060055481516001600160a01b0390911690829061085190600190610a5c565b8151811061086157610861610a17565b60200260200101906001600160a01b031690816001600160a01b03168152505092915050565b6001600160a01b038116811461089c57600080fd5b50565b6000602082840312156108b157600080fd5b81356108bc81610887565b9392505050565b803580151581146108d357600080fd5b919050565b6000602082840312156108ea57600080fd5b6108bc826108c3565b6020808252825182820181905260009190848201906040850190845b818110156109345783516001600160a01b03168352928401929184019160010161090f565b50909695505050505050565b60008083601f84011261095257600080fd5b50813567ffffffffffffffff81111561096a57600080fd5b6020830191508360208260051b850101111561098557600080fd5b9250929050565b6000806000604084860312156109a157600080fd5b6109aa846108c3565b9250602084013567ffffffffffffffff8111156109c657600080fd5b6109d286828701610940565b9497909650939450505050565b600080604083850312156109f257600080fd5b50508035926020909101359150565b634e487b7160e01b600052604160045260246000fd5b634e487b7160e01b600052603260045260246000fd5b634e487b7160e01b600052601160045260246000fd5b600060018201610a5557610a55610a2d565b5060010190565b81810381811115610a6f57610a6f610a2d565b92915050565b634e487b7160e01b600052603160045260246000fd5b60006040820160ff851683526020604081850152818551808452606086019150828701935060005b81811015610ad85784516001600160a01b031683529383019391830191600101610ab3565b5090979650505050505050565b60006020808385031215610af857600080fd5b825167ffffffffffffffff80821115610b1057600080fd5b818501915085601f830112610b2457600080fd5b815181811115610b3657610b36610a01565b8060051b604051601f19603f83011681018181108582111715610b5b57610b5b610a01565b604052918252848201925083810185019188831115610b7957600080fd5b938501935b82851015610b9757845184529385019392850192610b7e565b98975050505050505050565b80820180821115610a6f57610a6f610a2d56fea2646970667358221220d8a519808c9f2f1b52273d0a14feb23cac674c6d8484e4e84a89b47fdb74200564736f6c63430008140033",
          "opcodes": "PUSH1 0x80 PUSH1 0x40 MSTORE CALLVALUE DUP1 ISZERO PUSH2 0x10 JUMPI PUSH1 0x0 DUP1 REVERT JUMPDEST POP PUSH1 0x40 MLOAD PUSH2 0xCB7 CODESIZE SUB DUP1 PUSH2 0xCB7 DUP4 CODECOPY DUP2 ADD PUSH1 0x40 DUP2 SWAP1 MSTORE PUSH2 0x2F SWAP2 PUSH2 0x82 JUMP JUMPDEST PUSH1 0x0 DUP1 SLOAD PUSH1 0x1 PUSH1 0x1 PUSH1 0xA0 SHL SUB SWAP4 DUP5 AND PUSH1 0x1 PUSH1 0x1 PUSH1 0xA0 SHL SUB NOT SWAP2 DUP3 AND OR SWAP1 SWAP2 SSTORE PUSH1 0x1 DUP1 SLOAD DUP3 AND CALLER OR SWAP1 SSTORE PUSH1 0x5 DUP1 SLOAD SWAP3 SWAP1 SWAP4 AND SWAP2 AND OR SWAP1 SSTORE PUSH2 0xBC JUMP JUMPDEST PUSH1 0x1 PUSH1 0x1 PUSH1 0xA0 SHL SUB DUP2 AND DUP2 EQ PUSH2 0x7F JUMPI PUSH1 0x0 DUP1 REVERT JUMPDEST POP JUMP JUMPDEST PUSH1 0x0 DUP1 PUSH1 0x40 DUP4 DUP6 SUB SLT ISZERO PUSH2 0x95 JUMPI PUSH1 0x0 DUP1 REVERT JUMPDEST DUP3 MLOAD PUSH2 0xA0 DUP2 PUSH2 0x6A JUMP JUMPDEST PUSH1 0x20 DUP5 ADD MLOAD SWAP1 SWAP3 POP PUSH2 0xB1 DUP2 PUSH2 0x6A JUMP JUMPDEST DUP1 SWAP2 POP POP SWAP3 POP SWAP3 SWAP1 POP JUMP JUMPDEST PUSH2 0xBEC DUP1 PUSH2 0xCB PUSH1 0x0 CODECOPY PUSH1 0x0 RETURN INVALID PUSH1 0x80 PUSH1 0x40 MSTORE CALLVALUE DUP1 ISZERO PUSH2 0x10 JUMPI PUSH1 0x0 DUP1 REVERT JUMPDEST POP PUSH1 0x4 CALLDATASIZE LT PUSH2 0xD4 JUMPI PUSH1 0x0 CALLDATALOAD PUSH1 0xE0 SHR DUP1 PUSH4 0x7DC0D1D0 GT PUSH2 0x81 JUMPI DUP1 PUSH4 0xC6A26FD5 GT PUSH2 0x5B JUMPI DUP1 PUSH4 0xC6A26FD5 EQ PUSH2 0x1D4 JUMPI DUP1 PUSH4 0xE82FAC45 EQ PUSH2 0x1E7 JUMPI DUP1 PUSH4 0xE84EF543 EQ PUSH2 0x1FA JUMPI PUSH1 0x0 DUP1 REVERT JUMPDEST DUP1 PUSH4 0x7DC0D1D0 EQ PUSH2 0x183 JUMPI DUP1 PUSH4 0x8A28DB2C EQ PUSH2 0x1AE JUMPI DUP1 PUSH4 0x8DA5CB5B EQ PUSH2 0x1C1 JUMPI PUSH1 0x0 DUP1 REVERT JUMPDEST DUP1 PUSH4 0x7AD545DB GT PUSH2 0xB2 JUMPI DUP1 PUSH4 0x7AD545DB EQ PUSH2 0x12A JUMPI DUP1 PUSH4 0x7BBF4A3F EQ PUSH2 0x13D JUMPI DUP1 PUSH4 0x7D8756E3 EQ PUSH2 0x170 JUMPI PUSH1 0x0 DUP1 REVERT JUMPDEST DUP1 PUSH4 0x253C8BD4 EQ PUSH2 0xD9 JUMPI DUP1 PUSH4 0x357DA5C8 EQ PUSH2 0xEE JUMPI DUP1 PUSH4 0x614B2438 EQ PUSH2 0x101 JUMPI JUMPDEST PUSH1 0x0 DUP1 REVERT JUMPDEST PUSH2 0xEC PUSH2 0xE7 CALLDATASIZE PUSH1 0x4 PUSH2 0x89F JUMP JUMPDEST PUSH2 0x20D JUMP JUMPDEST STOP JUMPDEST PUSH2 0xEC PUSH2 0xFC CALLDATASIZE PUSH1 0x4 PUSH2 0x89F JUMP JUMPDEST PUSH2 0x237 JUMP JUMPDEST PUSH2 0x114 PUSH2 0x10F CALLDATASIZE PUSH1 0x4 PUSH2 0x8D8 JUMP JUMPDEST PUSH2 0x261 JUMP JUMPDEST PUSH1 0x40 MLOAD PUSH2 0x121 SWAP2 SWAP1 PUSH2 0x8F3 JUMP JUMPDEST PUSH1 0x40 MLOAD DUP1 SWAP2 SUB SWAP1 RETURN JUMPDEST PUSH2 0xEC PUSH2 0x138 CALLDATASIZE PUSH1 0x4 PUSH2 0x89F JUMP JUMPDEST PUSH2 0x33C JUMP JUMPDEST PUSH2 0x160 PUSH2 0x14B CALLDATASIZE PUSH1 0x4 PUSH2 0x89F JUMP JUMPDEST PUSH1 0x2 PUSH1 0x20 MSTORE PUSH1 0x0 SWAP1 DUP2 MSTORE PUSH1 0x40 SWAP1 KECCAK256 SLOAD PUSH1 0xFF AND DUP2 JUMP JUMPDEST PUSH1 0x40 MLOAD SWAP1 ISZERO ISZERO DUP2 MSTORE PUSH1 0x20 ADD PUSH2 0x121 JUMP JUMPDEST PUSH2 0xEC PUSH2 0x17E CALLDATASIZE PUSH1 0x4 PUSH2 0x89F JUMP JUMPDEST PUSH2 0x366 JUMP JUMPDEST PUSH1 0x0 SLOAD PUSH2 0x196 SWAP1 PUSH1 0x1 PUSH1 0x1 PUSH1 0xA0 SHL SUB AND DUP2 JUMP JUMPDEST PUSH1 0x40 MLOAD PUSH1 0x1 PUSH1 0x1 PUSH1 0xA0 SHL SUB SWAP1 SWAP2 AND DUP2 MSTORE PUSH1 0x20 ADD PUSH2 0x121 JUMP JUMPDEST PUSH2 0xEC PUSH2 0x1BC CALLDATASIZE PUSH1 0x4 PUSH2 0x98C JUMP JUMPDEST PUSH2 0x38F JUMP JUMPDEST PUSH1 0x1 SLOAD PUSH2 0x196 SWAP1 PUSH1 0x1 PUSH1 0x1 PUSH1 0xA0 SHL SUB AND DUP2 JUMP JUMPDEST PUSH2 0xEC PUSH2 0x1E2 CALLDATASIZE PUSH1 0x4 PUSH2 0x9DF JUMP JUMPDEST PUSH2 0x48D JUMP JUMPDEST PUSH2 0xEC PUSH2 0x1F5 CALLDATASIZE PUSH1 0x4 PUSH2 0x89F JUMP JUMPDEST PUSH2 0x5ED JUMP JUMPDEST PUSH2 0xEC PUSH2 0x208 CALLDATASIZE PUSH1 0x4 PUSH2 0x98C JUMP JUMPDEST PUSH2 0x619 JUMP JUMPDEST PUSH2 0x215 PUSH2 0x6AB JUMP JUMPDEST PUSH1 0x1 DUP1 SLOAD PUSH1 0x1 PUSH1 0x1 PUSH1 0xA0 SHL SUB NOT AND PUSH1 0x1 PUSH1 0x1 PUSH1 0xA0 SHL SUB SWAP3 SWAP1 SWAP3 AND SWAP2 SWAP1 SWAP2 OR SWAP1 SSTORE JUMP JUMPDEST PUSH2 0x23F PUSH2 0x6AB JUMP JUMPDEST PUSH1 0x0 DUP1 SLOAD PUSH1 0x1 PUSH1 0x1 PUSH1 0xA0 SHL SUB NOT AND PUSH1 0x1 PUSH1 0x1 PUSH1 0xA0 SHL SUB SWAP3 SWAP1 SWAP3 AND SWAP2 SWAP1 SWAP2 OR SWAP1 SSTORE JUMP JUMPDEST PUSH1 0x60 PUSH1 0x0 DUP3 PUSH2 0x271 JUMPI PUSH1 0x3 PUSH2 0x274 JUMP JUMPDEST PUSH1 0x4 JUMPDEST DUP1 SLOAD SWAP1 SWAP2 POP PUSH8 0xFFFFFFFFFFFFFFFF DUP2 GT ISZERO PUSH2 0x291 JUMPI PUSH2 0x291 PUSH2 0xA01 JUMP JUMPDEST PUSH1 0x40 MLOAD SWAP1 DUP1 DUP3 MSTORE DUP1 PUSH1 0x20 MUL PUSH1 0x20 ADD DUP3 ADD PUSH1 0x40 MSTORE DUP1 ISZERO PUSH2 0x2BA JUMPI DUP2 PUSH1 0x20 ADD PUSH1 0x20 DUP3 MUL DUP1 CALLDATASIZE DUP4 CALLDATACOPY ADD SWAP1 POP JUMPDEST POP SWAP2 POP PUSH1 0x0 JUMPDEST DUP2 SLOAD DUP2 LT ISZERO PUSH2 0x335 JUMPI DUP2 DUP2 DUP2 SLOAD DUP2 LT PUSH2 0x2DB JUMPI PUSH2 0x2DB PUSH2 0xA17 JUMP JUMPDEST SWAP1 PUSH1 0x0 MSTORE PUSH1 0x20 PUSH1 0x0 KECCAK256 ADD PUSH1 0x0 SWAP1 SLOAD SWAP1 PUSH2 0x100 EXP SWAP1 DIV PUSH1 0x1 PUSH1 0x1 PUSH1 0xA0 SHL SUB AND DUP4 DUP3 DUP2 MLOAD DUP2 LT PUSH2 0x30B JUMPI PUSH2 0x30B PUSH2 0xA17 JUMP JUMPDEST PUSH1 0x1 PUSH1 0x1 PUSH1 0xA0 SHL SUB SWAP1 SWAP3 AND PUSH1 0x20 SWAP3 DUP4 MUL SWAP2 SWAP1 SWAP2 ADD SWAP1 SWAP2 ADD MSTORE DUP1 PUSH2 0x32D DUP2 PUSH2 0xA43 JUMP JUMPDEST SWAP2 POP POP PUSH2 0x2C0 JUMP JUMPDEST POP POP SWAP2 SWAP1 POP JUMP JUMPDEST PUSH2 0x344 PUSH2 0x6AB JUMP JUMPDEST PUSH1 0x5 DUP1 SLOAD PUSH1 0x1 PUSH1 0x1 PUSH1 0xA0 SHL SUB NOT AND PUSH1 0x1 PUSH1 0x1 PUSH1 0xA0 SHL SUB SWAP3 SWAP1 SWAP3 AND SWAP2 SWAP1 SWAP2 OR SWAP1 SSTORE JUMP JUMPDEST PUSH2 0x36E PUSH2 0x6AB JUMP JUMPDEST PUSH1 0x1 PUSH1 0x1 PUSH1 0xA0 SHL SUB AND PUSH1 0x0 SWAP1 DUP2 MSTORE PUSH1 0x2 PUSH1 0x20 MSTORE PUSH1 0x40 SWAP1 KECCAK256 DUP1 SLOAD PUSH1 0xFF NOT AND SWAP1 SSTORE JUMP JUMPDEST PUSH2 0x397 PUSH2 0x6AB JUMP JUMPDEST PUSH1 0x0 DUP4 PUSH2 0x3A5 JUMPI PUSH1 0x3 PUSH2 0x3A8 JUMP JUMPDEST PUSH1 0x4 JUMPDEST SWAP1 POP PUSH1 0x0 JUMPDEST DUP3 DUP2 LT ISZERO PUSH2 0x486 JUMPI DUP2 SLOAD DUP3 SWAP1 PUSH2 0x3C5 SWAP1 PUSH1 0x1 SWAP1 PUSH2 0xA5C JUMP JUMPDEST DUP2 SLOAD DUP2 LT PUSH2 0x3D5 JUMPI PUSH2 0x3D5 PUSH2 0xA17 JUMP JUMPDEST PUSH1 0x0 SWAP2 DUP3 MSTORE PUSH1 0x20 SWAP1 SWAP2 KECCAK256 ADD SLOAD PUSH1 0x1 PUSH1 0x1 PUSH1 0xA0 SHL SUB AND DUP3 DUP6 DUP6 DUP5 DUP2 DUP2 LT PUSH2 0x3FD JUMPI PUSH2 0x3FD PUSH2 0xA17 JUMP JUMPDEST SWAP1 POP PUSH1 0x20 MUL ADD CALLDATALOAD DUP2 SLOAD DUP2 LT PUSH2 0x414 JUMPI PUSH2 0x414 PUSH2 0xA17 JUMP JUMPDEST SWAP1 PUSH1 0x0 MSTORE PUSH1 0x20 PUSH1 0x0 KECCAK256 ADD PUSH1 0x0 PUSH2 0x100 EXP DUP2 SLOAD DUP2 PUSH1 0x1 PUSH1 0x1 PUSH1 0xA0 SHL SUB MUL NOT AND SWAP1 DUP4 PUSH1 0x1 PUSH1 0x1 PUSH1 0xA0 SHL SUB AND MUL OR SWAP1 SSTORE POP DUP2 DUP1 SLOAD DUP1 PUSH2 0x452 JUMPI PUSH2 0x452 PUSH2 0xA75 JUMP JUMPDEST PUSH1 0x0 DUP3 DUP2 MSTORE PUSH1 0x20 SWAP1 KECCAK256 DUP2 ADD PUSH1 0x0 NOT SWAP1 DUP2 ADD DUP1 SLOAD PUSH1 0x1 PUSH1 0x1 PUSH1 0xA0 SHL SUB NOT AND SWAP1 SSTORE ADD SWAP1 SSTORE DUP1 PUSH2 0x47E DUP2 PUSH2 0xA43 JUMP JUMPDEST SWAP2 POP POP PUSH2 0x3AD JUMP JUMPDEST POP POP POP POP POP JUMP JUMPDEST PUSH1 0x1 SLOAD PUSH1 0x1 PUSH1 0x1 PUSH1 0xA0 SHL SUB AND CALLER EQ DUP1 PUSH2 0x4B5 JUMPI POP CALLER PUSH1 0x0 SWAP1 DUP2 MSTORE PUSH1 0x2 PUSH1 0x20 MSTORE PUSH1 0x40 SWAP1 KECCAK256 SLOAD PUSH1 0xFF AND JUMPDEST PUSH2 0x4BE JUMPI PUSH1 0x0 DUP1 REVERT JUMPDEST PUSH1 0x0 DUP1 SLOAD PUSH1 0x1 PUSH1 0x1 PUSH1 0xA0 SHL SUB AND PUSH4 0xFE6B9B4C DUP5 PUSH2 0x4DB DUP2 DUP7 PUSH2 0x6C4 JUMP JUMPDEST PUSH1 0x40 MLOAD DUP4 PUSH4 0xFFFFFFFF AND PUSH1 0xE0 SHL DUP2 MSTORE PUSH1 0x4 ADD PUSH2 0x4F8 SWAP3 SWAP2 SWAP1 PUSH2 0xA8B JUMP JUMPDEST PUSH1 0x0 PUSH1 0x40 MLOAD DUP1 DUP4 SUB DUP2 DUP7 GAS STATICCALL ISZERO DUP1 ISZERO PUSH2 0x515 JUMPI RETURNDATASIZE PUSH1 0x0 DUP1 RETURNDATACOPY RETURNDATASIZE PUSH1 0x0 REVERT JUMPDEST POP POP POP POP PUSH1 0x40 MLOAD RETURNDATASIZE PUSH1 0x0 DUP3 RETURNDATACOPY PUSH1 0x1F RETURNDATASIZE SWAP1 DUP2 ADD PUSH1 0x1F NOT AND DUP3 ADD PUSH1 0x40 MSTORE PUSH2 0x53D SWAP2 SWAP1 DUP2 ADD SWAP1 PUSH2 0xAE5 JUMP JUMPDEST SWAP1 POP DUP2 JUMPDEST PUSH2 0x54B DUP5 DUP5 PUSH2 0xBA3 JUMP JUMPDEST DUP2 LT ISZERO PUSH2 0x5E7 JUMPI PUSH1 0x3 DUP2 DUP2 SLOAD DUP2 LT PUSH2 0x565 JUMPI PUSH2 0x565 PUSH2 0xA17 JUMP JUMPDEST PUSH1 0x0 SWAP2 DUP3 MSTORE PUSH1 0x20 SWAP1 SWAP2 KECCAK256 ADD SLOAD PUSH1 0x1 PUSH1 0x1 PUSH1 0xA0 SHL SUB AND PUSH32 0x204DB94462F9EB6932709F0DEC7C52F4EFA8EDDF8C60EC4C2DD0798B5492B110 DUP4 PUSH2 0x5A6 DUP7 DUP6 PUSH2 0xA5C JUMP JUMPDEST DUP2 MLOAD DUP2 LT PUSH2 0x5B6 JUMPI PUSH2 0x5B6 PUSH2 0xA17 JUMP JUMPDEST PUSH1 0x20 MUL PUSH1 0x20 ADD ADD MLOAD PUSH1 0x40 MLOAD PUSH2 0x5CD SWAP2 DUP2 MSTORE PUSH1 0x20 ADD SWAP1 JUMP JUMPDEST PUSH1 0x40 MLOAD DUP1 SWAP2 SUB SWAP1 LOG2 DUP1 PUSH2 0x5DF DUP2 PUSH2 0xA43 JUMP JUMPDEST SWAP2 POP POP PUSH2 0x541 JUMP JUMPDEST POP POP POP POP JUMP JUMPDEST PUSH2 0x5F5 PUSH2 0x6AB JUMP JUMPDEST PUSH1 0x1 PUSH1 0x1 PUSH1 0xA0 SHL SUB AND PUSH1 0x0 SWAP1 DUP2 MSTORE PUSH1 0x2 PUSH1 0x20 MSTORE PUSH1 0x40 SWAP1 KECCAK256 DUP1 SLOAD PUSH1 0xFF NOT AND PUSH1 0x1 OR SWAP1 SSTORE JUMP JUMPDEST PUSH2 0x621 PUSH2 0x6AB JUMP JUMPDEST PUSH1 0x0 DUP4 PUSH2 0x62F JUMPI PUSH1 0x3 PUSH2 0x632 JUMP JUMPDEST PUSH1 0x4 JUMPDEST SWAP1 POP PUSH1 0x0 JUMPDEST DUP3 DUP2 LT ISZERO PUSH2 0x486 JUMPI DUP2 DUP5 DUP5 DUP4 DUP2 DUP2 LT PUSH2 0x652 JUMPI PUSH2 0x652 PUSH2 0xA17 JUMP JUMPDEST SWAP1 POP PUSH1 0x20 MUL ADD PUSH1 0x20 DUP2 ADD SWAP1 PUSH2 0x667 SWAP2 SWAP1 PUSH2 0x89F JUMP JUMPDEST DUP2 SLOAD PUSH1 0x1 DUP2 ADD DUP4 SSTORE PUSH1 0x0 SWAP3 DUP4 MSTORE PUSH1 0x20 SWAP1 SWAP3 KECCAK256 SWAP1 SWAP2 ADD DUP1 SLOAD PUSH1 0x1 PUSH1 0x1 PUSH1 0xA0 SHL SUB NOT AND PUSH1 0x1 PUSH1 0x1 PUSH1 0xA0 SHL SUB SWAP1 SWAP3 AND SWAP2 SWAP1 SWAP2 OR SWAP1 SSTORE DUP1 PUSH2 0x6A3 DUP2 PUSH2 0xA43 JUMP JUMPDEST SWAP2 POP POP PUSH2 0x637 JUMP JUMPDEST PUSH1 0x1 SLOAD PUSH1 0x1 PUSH1 0x1 PUSH1 0xA0 SHL SUB AND CALLER EQ PUSH2 0x6C2 JUMPI PUSH1 0x0 DUP1 REVERT JUMPDEST JUMP JUMPDEST PUSH1 0x4 SLOAD PUSH1 0x60 SWAP1 PUSH2 0x6D4 SWAP1 DUP5 PUSH2 0xBA3 JUMP JUMPDEST PUSH2 0x6DF SWAP1 PUSH1 0x1 PUSH2 0xBA3 JUMP JUMPDEST PUSH8 0xFFFFFFFFFFFFFFFF DUP2 GT ISZERO PUSH2 0x6F7 JUMPI PUSH2 0x6F7 PUSH2 0xA01 JUMP JUMPDEST PUSH1 0x40 MLOAD SWAP1 DUP1 DUP3 MSTORE DUP1 PUSH1 0x20 MUL PUSH1 0x20 ADD DUP3 ADD PUSH1 0x40 MSTORE DUP1 ISZERO PUSH2 0x720 JUMPI DUP2 PUSH1 0x20 ADD PUSH1 0x20 DUP3 MUL DUP1 CALLDATASIZE DUP4 CALLDATACOPY ADD SWAP1 POP JUMPDEST POP SWAP1 POP DUP2 JUMPDEST PUSH2 0x72F DUP5 DUP5 PUSH2 0xBA3 JUMP JUMPDEST DUP2 LT ISZERO PUSH2 0x7A3 JUMPI PUSH1 0x3 DUP2 DUP2 SLOAD DUP2 LT PUSH2 0x749 JUMPI PUSH2 0x749 PUSH2 0xA17 JUMP JUMPDEST PUSH1 0x0 SWAP2 DUP3 MSTORE PUSH1 0x20 SWAP1 SWAP2 KECCAK256 ADD SLOAD PUSH1 0x1 PUSH1 0x1 PUSH1 0xA0 SHL SUB AND DUP3 PUSH2 0x769 DUP6 DUP5 PUSH2 0xA5C JUMP JUMPDEST DUP2 MLOAD DUP2 LT PUSH2 0x779 JUMPI PUSH2 0x779 PUSH2 0xA17 JUMP JUMPDEST PUSH1 0x1 PUSH1 0x1 PUSH1 0xA0 SHL SUB SWAP1 SWAP3 AND PUSH1 0x20 SWAP3 DUP4 MUL SWAP2 SWAP1 SWAP2 ADD SWAP1 SWAP2 ADD MSTORE DUP1 PUSH2 0x79B DUP2 PUSH2 0xA43 JUMP JUMPDEST SWAP2 POP POP PUSH2 0x725 JUMP JUMPDEST POP DUP3 JUMPDEST PUSH1 0x1 DUP3 MLOAD PUSH2 0x7B4 SWAP2 SWAP1 PUSH2 0xA5C JUMP JUMPDEST DUP2 LT ISZERO PUSH2 0x831 JUMPI PUSH1 0x4 PUSH2 0x7C7 DUP6 DUP4 PUSH2 0xA5C JUMP JUMPDEST DUP2 SLOAD DUP2 LT PUSH2 0x7D7 JUMPI PUSH2 0x7D7 PUSH2 0xA17 JUMP JUMPDEST SWAP1 PUSH1 0x0 MSTORE PUSH1 0x20 PUSH1 0x0 KECCAK256 ADD PUSH1 0x0 SWAP1 SLOAD SWAP1 PUSH2 0x100 EXP SWAP1 DIV PUSH1 0x1 PUSH1 0x1 PUSH1 0xA0 SHL SUB AND DUP3 DUP3 DUP2 MLOAD DUP2 LT PUSH2 0x807 JUMPI PUSH2 0x807 PUSH2 0xA17 JUMP JUMPDEST PUSH1 0x1 PUSH1 0x1 PUSH1 0xA0 SHL SUB SWAP1 SWAP3 AND PUSH1 0x20 SWAP3 DUP4 MUL SWAP2 SWAP1 SWAP2 ADD SWAP1 SWAP2 ADD MSTORE DUP1 PUSH2 0x829 DUP2 PUSH2 0xA43 JUMP JUMPDEST SWAP2 POP POP PUSH2 0x7A6 JUMP JUMPDEST POP PUSH1 0x5 SLOAD DUP2 MLOAD PUSH1 0x1 PUSH1 0x1 PUSH1 0xA0 SHL SUB SWAP1 SWAP2 AND SWAP1 DUP3 SWAP1 PUSH2 0x851 SWAP1 PUSH1 0x1 SWAP1 PUSH2 0xA5C JUMP JUMPDEST DUP2 MLOAD DUP2 LT PUSH2 0x861 JUMPI PUSH2 0x861 PUSH2 0xA17 JUMP JUMPDEST PUSH1 0x20 MUL PUSH1 0x20 ADD ADD SWAP1 PUSH1 0x1 PUSH1 0x1 PUSH1 0xA0 SHL SUB AND SWAP1 DUP2 PUSH1 0x1 PUSH1 0x1 PUSH1 0xA0 SHL SUB AND DUP2 MSTORE POP POP SWAP3 SWAP2 POP POP JUMP JUMPDEST PUSH1 0x1 PUSH1 0x1 PUSH1 0xA0 SHL SUB DUP2 AND DUP2 EQ PUSH2 0x89C JUMPI PUSH1 0x0 DUP1 REVERT JUMPDEST POP JUMP JUMPDEST PUSH1 0x0 PUSH1 0x20 DUP3 DUP5 SUB SLT ISZERO PUSH2 0x8B1 JUMPI PUSH1 0x0 DUP1 REVERT JUMPDEST DUP2 CALLDATALOAD PUSH2 0x8BC DUP2 PUSH2 0x887 JUMP JUMPDEST SWAP4 SWAP3 POP POP POP JUMP JUMPDEST DUP1 CALLDATALOAD DUP1 ISZERO ISZERO DUP2 EQ PUSH2 0x8D3 JUMPI PUSH1 0x0 DUP1 REVERT JUMPDEST SWAP2 SWAP1 POP JUMP JUMPDEST PUSH1 0x0 PUSH1 0x20 DUP3 DUP5 SUB SLT ISZERO PUSH2 0x8EA JUMPI PUSH1 0x0 DUP1 REVERT JUMPDEST PUSH2 0x8BC DUP3 PUSH2 0x8C3 JUMP JUMPDEST PUSH1 0x20 DUP1 DUP3 MSTORE DUP3 MLOAD DUP3 DUP3 ADD DUP2 SWAP1 MSTORE PUSH1 0x0 SWAP2 SWAP1 DUP5 DUP3 ADD SWAP1 PUSH1 0x40 DUP6 ADD SWAP1 DUP5 JUMPDEST DUP2 DUP2 LT ISZERO PUSH2 0x934 JUMPI DUP4 MLOAD PUSH1 0x1 PUSH1 0x1 PUSH1 0xA0 SHL SUB AND DUP4 MSTORE SWAP3 DUP5 ADD SWAP3 SWAP2 DUP5 ADD SWAP2 PUSH1 0x1 ADD PUSH2 0x90F JUMP JUMPDEST POP SWAP1 SWAP7 SWAP6 POP POP POP POP POP POP JUMP JUMPDEST PUSH1 0x0 DUP1 DUP4 PUSH1 0x1F DUP5 ADD SLT PUSH2 0x952 JUMPI PUSH1 0x0 DUP1 REVERT JUMPDEST POP DUP2 CALLDATALOAD PUSH8 0xFFFFFFFFFFFFFFFF DUP2 GT ISZERO PUSH2 0x96A JUMPI PUSH1 0x0 DUP1 REVERT JUMPDEST PUSH1 0x20 DUP4 ADD SWAP2 POP DUP4 PUSH1 0x20 DUP3 PUSH1 0x5 SHL DUP6 ADD ADD GT ISZERO PUSH2 0x985 JUMPI PUSH1 0x0 DUP1 REVERT JUMPDEST SWAP3 POP SWAP3 SWAP1 POP JUMP JUMPDEST PUSH1 0x0 DUP1 PUSH1 0x0 PUSH1 0x40 DUP5 DUP7 SUB SLT ISZERO PUSH2 0x9A1 JUMPI PUSH1 0x0 DUP1 REVERT JUMPDEST PUSH2 0x9AA DUP5 PUSH2 0x8C3 JUMP JUMPDEST SWAP3 POP PUSH1 0x20 DUP5 ADD CALLDATALOAD PUSH8 0xFFFFFFFFFFFFFFFF DUP2 GT ISZERO PUSH2 0x9C6 JUMPI PUSH1 0x0 DUP1 REVERT JUMPDEST PUSH2 0x9D2 DUP7 DUP3 DUP8 ADD PUSH2 0x940 JUMP JUMPDEST SWAP5 SWAP8 SWAP1 SWAP7 POP SWAP4 SWAP5 POP POP POP POP JUMP JUMPDEST PUSH1 0x0 DUP1 PUSH1 0x40 DUP4 DUP6 SUB SLT ISZERO PUSH2 0x9F2 JUMPI PUSH1 0x0 DUP1 REVERT JUMPDEST POP POP DUP1 CALLDATALOAD SWAP3 PUSH1 0x20 SWAP1 SWAP2 ADD CALLDATALOAD SWAP2 POP JUMP JUMPDEST PUSH4 0x4E487B71 PUSH1 0xE0 SHL PUSH1 0x0 MSTORE PUSH1 0x41 PUSH1 0x4 MSTORE PUSH1 0x24 PUSH1 0x0 REVERT JUMPDEST PUSH4 0x4E487B71 PUSH1 0xE0 SHL PUSH1 0x0 MSTORE PUSH1 0x32 PUSH1 0x4 MSTORE PUSH1 0x24 PUSH1 0x0 REVERT JUMPDEST PUSH4 0x4E487B71 PUSH1 0xE0 SHL PUSH1 0x0 MSTORE PUSH1 0x11 PUSH1 0x4 MSTORE PUSH1 0x24 PUSH1 0x0 REVERT JUMPDEST PUSH1 0x0 PUSH1 0x1 DUP3 ADD PUSH2 0xA55 JUMPI PUSH2 0xA55 PUSH2 0xA2D JUMP JUMPDEST POP PUSH1 0x1 ADD SWAP1 JUMP JUMPDEST DUP2 DUP2 SUB DUP2 DUP2 GT ISZERO PUSH2 0xA6F JUMPI PUSH2 0xA6F PUSH2 0xA2D JUMP JUMPDEST SWAP3 SWAP2 POP POP JUMP JUMPDEST PUSH4 0x4E487B71 PUSH1 0xE0 SHL PUSH1 0x0 MSTORE PUSH1 0x31 PUSH1 0x4 MSTORE PUSH1 0x24 PUSH1 0x0 REVERT JUMPDEST PUSH1 0x0 PUSH1 0x40 DUP3 ADD PUSH1 0xFF DUP6 AND DUP4 MSTORE PUSH1 0x20 PUSH1 0x40 DUP2 DUP6 ADD MSTORE DUP2 DUP6 MLOAD DUP1 DUP5 MSTORE PUSH1 0x60 DUP7 ADD SWAP2 POP DUP3 DUP8 ADD SWAP4 POP PUSH1 0x0 JUMPDEST DUP2 DUP2 LT ISZERO PUSH2 0xAD8 JUMPI DUP5 MLOAD PUSH1 0x1 PUSH1 0x1 PUSH1 0xA0 SHL SUB AND DUP4 MSTORE SWAP4 DUP4 ADD SWAP4 SWAP2 DUP4 ADD SWAP2 PUSH1 0x1 ADD PUSH2 0xAB3 JUMP JUMPDEST POP SWAP1 SWAP8 SWAP7 POP POP POP POP POP POP POP JUMP JUMPDEST PUSH1 0x0 PUSH1 0x20 DUP1 DUP4 DUP6 SUB SLT ISZERO PUSH2 0xAF8 JUMPI PUSH1 0x0 DUP1 REVERT JUMPDEST DUP3 MLOAD PUSH8 0xFFFFFFFFFFFFFFFF DUP1 DUP3 GT ISZERO PUSH2 0xB10 JUMPI PUSH1 0x0 DUP1 REVERT JUMPDEST DUP2 DUP6 ADD SWAP2 POP DUP6 PUSH1 0x1F DUP4 ADD SLT PUSH2 0xB24 JUMPI PUSH1 0x0 DUP1 REVERT JUMPDEST DUP2 MLOAD DUP2 DUP2 GT ISZERO PUSH2 0xB36 JUMPI PUSH2 0xB36 PUSH2 0xA01 JUMP JUMPDEST DUP1 PUSH1 0x5 SHL PUSH1 0x40 MLOAD PUSH1 0x1F NOT PUSH1 0x3F DUP4 ADD AND DUP2 ADD DUP2 DUP2 LT DUP6 DUP3 GT OR ISZERO PUSH2 0xB5B JUMPI PUSH2 0xB5B PUSH2 0xA01 JUMP JUMPDEST PUSH1 0x40 MSTORE SWAP2 DUP3 MSTORE DUP5 DUP3 ADD SWAP3 POP DUP4 DUP2 ADD DUP6 ADD SWAP2 DUP9 DUP4 GT ISZERO PUSH2 0xB79 JUMPI PUSH1 0x0 DUP1 REVERT JUMPDEST SWAP4 DUP6 ADD SWAP4 JUMPDEST DUP3 DUP6 LT ISZERO PUSH2 0xB97 JUMPI DUP5 MLOAD DUP5 MSTORE SWAP4 DUP6 ADD SWAP4 SWAP3 DUP6 ADD SWAP3 PUSH2 0xB7E JUMP JUMPDEST SWAP9 SWAP8 POP POP POP POP POP POP POP POP JUMP JUMPDEST DUP1 DUP3 ADD DUP1 DUP3 GT ISZERO PUSH2 0xA6F JUMPI PUSH2 0xA6F PUSH2 0xA2D JUMP INVALID LOG2 PUSH5 0x6970667358 0x22 SLT KECCAK256 0xD8 0xA5 NOT DUP1 DUP13 SWAP16 0x2F SHL MSTORE 0x27 RETURNDATASIZE EXP EQ INVALID 0xB2 EXTCODECOPY 0xAC PUSH8 0x4C6D8484E4E84A89 0xB4 PUSH32 0xDB74200564736F6C634300081400330000000000000000000000000000000000 "
        },
        "methodIdentifiers": {
          "add_caller(address)": "e82fac45",
          "add_tokens(bool,address[])": "e84ef543",
          "callers(address)": "7bbf4a3f",
          "change_USDC(address)": "7ad545db",
          "change_oracle(address)": "357da5c8",
          "change_owner(address)": "253c8bd4",
          "fetchPrices(uint256,uint256)": "c6a26fd5",
          "get_tokens(bool)": "614b2438",
          "oracle()": "7dc0d1d0",
          "owner()": "8da5cb5b",
          "remove_caller(address)": "7d8756e3",
          "remove_tokens(bool,uint256[])": "8a28db2c"
        }
      }
    }
  }
}