{
  "contracts/TenexOracle.sol": {
    "TenexOracle": {
      "abi": [
        {
          "inputs": [
            {
              "internalType": "address",
              "name": "_factoryV2",
              "type": "address"
            }
          ],
          "stateMutability": "nonpayable",
          "type": "constructor"
        },
        {
          "inputs": [
            {
              "internalType": "address",
              "name": "_owner",
              "type": "address"
            }
          ],
          "name": "change_owner",
          "outputs": [],
          "stateMutability": "nonpayable",
          "type": "function"
        },
        {
          "inputs": [],
          "name": "factoryV2",
          "outputs": [
            {
              "internalType": "address",
              "name": "",
              "type": "address"
            }
          ],
          "stateMutability": "view",
          "type": "function"
        },
        {
          "inputs": [
            {
              "internalType": "uint8",
              "name": "src_len",
              "type": "uint8"
            },
            {
              "internalType": "contract IERC20Metadata[]",
              "name": "connectors",
              "type": "address[]"
            }
          ],
          "name": "getManyRatesWithConnectors",
          "outputs": [
            {
              "internalType": "uint256[]",
              "name": "rates",
              "type": "uint256[]"
            }
          ],
          "stateMutability": "view",
          "type": "function"
        }
      ],
      "evm": {
        "bytecode": {
          "linkReferences": {},
          "object": "60a06040526000805460ff60a01b1916600560a11b17905534801561002357600080fd5b5060405161137738038061137783398101604081905261004291610065565b6001600160a01b0316608052600080546001600160a01b03191633179055610095565b60006020828403121561007757600080fd5b81516001600160a01b038116811461008e57600080fd5b9392505050565b6080516112ba6100bd60003960008181606001528181610d770152610dfc01526112ba6000f3fe608060405234801561001057600080fd5b50600436106100415760003560e01c8063253c8bd41461004657806368e0d4e11461005b578063fe6b9b4c1461009f575b600080fd5b610059610054366004610e94565b6100bf565b005b6100827f000000000000000000000000000000000000000000000000000000000000000081565b6040516001600160a01b0390911681526020015b60405180910390f35b6100b26100ad366004610ee6565b610110565b6040516100969190610fc0565b6000546001600160a01b031633146100d657600080fd5b600080547fffffffffffffffffffffffff0000000000000000000000000000000000000000166001600160a01b0392909216919091179055565b6060600061013c600060149054906101000a900460ff168560ff168551610137919061101a565b6108d6565b90506101696040518060800160405280606081526020016060815260200160608152602001606081525090565b8460ff1667ffffffffffffffff81111561018557610185610ec0565b6040519080825280602002602001820160405280156101ae578160200160208202803683370190505b50815283516101c19060ff87169061101a565b67ffffffffffffffff8111156101d9576101d9610ec0565b60405190808252806020026020018201604052801561021e57816020015b60408051808201909152600080825260208201528152602001906001900390816101f75790505b506020820152835167ffffffffffffffff81111561023e5761023e610ec0565b604051908082528060200260200182016040528015610267578160200160208202803683370190505b50604082015260005b84518160ff16101561033357848160ff16815181106102915761029161102d565b60200260200101516001600160a01b031663313ce5676040518163ffffffff1660e01b8152600401602060405180830381865afa1580156102d6573d6000803e3d6000fd5b505050506040513d601f19601f820116820180604052508101906102fa9190611043565b60ff1682604001518260ff16815181106103165761031661102d565b60209081029190910101528061032b81611060565b915050610270565b5060005b8560ff168160ff1610156108ca576040805160a0810182526000602082018190526060820181905260808201526001815260ff8381169282019290925286519091610385919089169061101a565b67ffffffffffffffff81111561039d5761039d610ec0565b6040519080825280602002602001820160405280156103c6578160200160208202803683370190505b50606084015260005b8460ff168160ff1610156108b5576040805160608082018352600080835260208301819052928201839052840191909152885b88518160ff161015610512576000608085018190525b8360ff168160ff161015610471578160ff1687606001518260ff16815181106104435761044361102d565b602002602001015160ff160361045f5760016080860152610471565b8061046981611060565b915050610418565b5083608001516105005760006104c88a866040015160ff16815181106104995761049961102d565b60200260200101518b8460ff16815181106104b6576104b661102d565b602002602001015185600001516108f4565b8051909150156104fe57602080820151151560408086019190915282015184526060808301519185019190915260ff8316908601525b505b8061050a81611060565b915050610402565b50826060015160ff1660000361054f57600085600001518560ff168151811061053d5761053d61102d565b602002602001018181525050506108b5565b806040015115610601576105f788846040015160ff16815181106105755761057561102d565b602002602001015189856060015160ff16815181106105965761059661102d565b60200260200101518760400151866060015160ff16815181106105bb576105bb61102d565b60200260200101518860400151876040015160ff16815181106105e0576105e061102d565b60200260200101516105f2919061107f565b61099d565b602084015261066d565b610667816000015182602001518760400151866060015160ff168151811061062b5761062b61102d565b60200260200101518860400151876040015160ff16815181106106505761065061102d565b6020026020010151610662919061107f565b610b62565b60208401525b6020830151835184906106819083906110a6565b90525060ff8216156106ab57670de0b6b3a7640000836000018181516106a791906110bd565b9052505b8860ff16836040015160ff1610610714576040518060400160405280846060015160ff168152602001846020015181525085602001518a85604001516106f191906110df565b60ff16815181106107045761070461102d565b602002602001018190525061082f565b600085602001518a856060015161072b91906110df565b60ff168151811061073e5761073e61102d565b602002602001015160200151111561082f575b670de0b6b3a764000085602001518a856060015161076f91906110df565b60ff16815181106107825761078261102d565b602002602001015160200151846000015161079d91906110a6565b6107a791906110bd565b8352602085015160608401516107be908b906110df565b60ff16815181106107d1576107d161102d565b60209081029190910101515160ff16606084015287516107f39060019061101a565b836060015160ff160361082a5782518551805160ff87169081106108195761081961102d565b60200260200101818152505061082f565b610751565b826060015185606001518360ff168151811061084d5761084d61102d565b602002602001019060ff16908160ff16815250506001885161086f919061101a565b836060015160ff16036108955782518551805160ff871690811061053d5761053d61102d565b50606082015160ff166040830152806108ad81611060565b9150506103cf565b505080806108c290611060565b915050610337565b50519150505b92915050565b60008160ff168360ff16106108eb57816108ed565b825b9392505050565b60408051608081018252600080825260208201819052918101829052606081018290529080610924868683610be8565b9150915060008061093788886001610be8565b9092509050856000808083881115610956575086925082915085905060005b8386111561096b575084925082915083905060015b8984111561098e576001895280151560208a015260608901829052604089018390525b50505050505050509392505050565b600080846001600160a01b031663313ce5676040518163ffffffff1660e01b8152600401602060405180830381865afa1580156109de573d6000803e3d6000fd5b505050506040513d601f19601f82011682018060405250810190610a029190611043565b60ff1690506000610a1586866001610ce0565b905060006001600160a01b03821663f140a35a610a3385600a6111dc565b6040517fffffffff0000000000000000000000000000000000000000000000000000000060e084901b16815260048101919091526001600160a01b038a166024820152604401602060405180830381865afa925050508015610ab2575060408051601f3d908101601f19168201909252610aaf918101906111e8565b60015b610ac257600093505050506108ed565b90506000851215610b1957610ad685611201565b610ae190600a6111dc565b610aec84600a6111dc565b610af691906110a6565b610b0882670de0b6b3a76400006110a6565b610b1291906110bd565b9350610b58565b610b2483600a6111dc565b610b2f86600a6111dc565b610b3990836110a6565b610b4b90670de0b6b3a76400006110a6565b610b5591906110bd565b93505b5050509392505050565b600080821215610bad57610b7582611201565b610b8090600a6111dc565b610b8a90856110a6565b610b9c84670de0b6b3a76400006110a6565b610ba691906110bd565b90506108ed565b8383610bba84600a6111dc565b610bcc90670de0b6b3a76400006110a6565b610bd691906110a6565b610be091906110bd565b949350505050565b600080600080856001600160a01b0316876001600160a01b031610610c0e578587610c11565b86865b915091506000610c22838388610d21565b90506001600160a01b0381163b610c40576000945060009350610cd5565b600080826001600160a01b0316630902f1ac6040518163ffffffff1660e01b8152600401606060405180830381865afa158015610c81573d6000803e3d6000fd5b505050506040513d601f19601f82011682018060405250810190610ca59190611239565b5091509150846001600160a01b03168a6001600160a01b031614610cca578082610ccd565b81815b909750955050505b505050935093915050565b6000806000846001600160a01b0316866001600160a01b031610610d05578486610d08565b85855b91509150610d17828286610d21565b9695505050505050565b6040516bffffffffffffffffffffffff19606085811b8216602084015284901b16603482015281151560f81b60488201526000908190604901604051602081830303815290604052805190602001209050610e737f00000000000000000000000000000000000000000000000000000000000000006001600160a01b0316635c60da1b6040518163ffffffff1660e01b8152600401602060405180830381865afa158015610dd3573d6000803e3d6000fd5b505050506040513d601f19601f82011682018060405250810190610df79190611267565b6040517f000000000000000000000000000000000000000000000000000000000000000060388201526f5af43d82803e903d91602b57fd5bf3ff60248201526014810191909152733d602d80600a3d3981f3363d3d373d3d3d363d738152605881018390526037600c8201206078820152605560439091012090565b95945050505050565b6001600160a01b0381168114610e9157600080fd5b50565b600060208284031215610ea657600080fd5b81356108ed81610e7c565b60ff81168114610e9157600080fd5b634e487b7160e01b600052604160045260246000fd5b8035610ee181610e7c565b919050565b60008060408385031215610ef957600080fd5b8235610f0481610eb1565b915060208381013567ffffffffffffffff80821115610f2257600080fd5b818601915086601f830112610f3657600080fd5b813581811115610f4857610f48610ec0565b8060051b604051601f19603f83011681018181108582111715610f6d57610f6d610ec0565b604052918252848201925083810185019189831115610f8b57600080fd5b938501935b82851015610fb057610fa185610ed6565b84529385019392850192610f90565b8096505050505050509250929050565b6020808252825182820181905260009190848201906040850190845b81811015610ff857835183529284019291840191600101610fdc565b50909695505050505050565b634e487b7160e01b600052601160045260246000fd5b818103818111156108d0576108d0611004565b634e487b7160e01b600052603260045260246000fd5b60006020828403121561105557600080fd5b81516108ed81610eb1565b600060ff821660ff810361107657611076611004565b60010192915050565b818103600083128015838313168383128216171561109f5761109f611004565b5092915050565b80820281158282048414176108d0576108d0611004565b6000826110da57634e487b7160e01b600052601260045260246000fd5b500490565b60ff82811682821603908111156108d0576108d0611004565b600181815b8085111561113357816000190482111561111957611119611004565b8085161561112657918102915b93841c93908002906110fd565b509250929050565b60008261114a575060016108d0565b81611157575060006108d0565b816001811461116d576002811461117757611193565b60019150506108d0565b60ff84111561118857611188611004565b50506001821b6108d0565b5060208310610133831016604e8410600b84101617156111b6575081810a6108d0565b6111c083836110f8565b80600019048211156111d4576111d4611004565b029392505050565b60006108ed838361113b565b6000602082840312156111fa57600080fd5b5051919050565b60007f8000000000000000000000000000000000000000000000000000000000000000820361123257611232611004565b5060000390565b60008060006060848603121561124e57600080fd5b8351925060208401519150604084015190509250925092565b60006020828403121561127957600080fd5b81516108ed81610e7c56fea264697066735822122073eb32ade78707d95c83f7e4bd17a416aa907d5441388cfa80632509b8cf80fa64736f6c63430008140033",
          "opcodes": "PUSH1 0xA0 PUSH1 0x40 MSTORE PUSH1 0x0 DUP1 SLOAD PUSH1 0xFF PUSH1 0xA0 SHL NOT AND PUSH1 0x5 PUSH1 0xA1 SHL OR SWAP1 SSTORE CALLVALUE DUP1 ISZERO PUSH2 0x23 JUMPI PUSH1 0x0 DUP1 REVERT JUMPDEST POP PUSH1 0x40 MLOAD PUSH2 0x1377 CODESIZE SUB DUP1 PUSH2 0x1377 DUP4 CODECOPY DUP2 ADD PUSH1 0x40 DUP2 SWAP1 MSTORE PUSH2 0x42 SWAP2 PUSH2 0x65 JUMP JUMPDEST PUSH1 0x1 PUSH1 0x1 PUSH1 0xA0 SHL SUB AND PUSH1 0x80 MSTORE PUSH1 0x0 DUP1 SLOAD PUSH1 0x1 PUSH1 0x1 PUSH1 0xA0 SHL SUB NOT AND CALLER OR SWAP1 SSTORE PUSH2 0x95 JUMP JUMPDEST PUSH1 0x0 PUSH1 0x20 DUP3 DUP5 SUB SLT ISZERO PUSH2 0x77 JUMPI PUSH1 0x0 DUP1 REVERT JUMPDEST DUP2 MLOAD PUSH1 0x1 PUSH1 0x1 PUSH1 0xA0 SHL SUB DUP2 AND DUP2 EQ PUSH2 0x8E JUMPI PUSH1 0x0 DUP1 REVERT JUMPDEST SWAP4 SWAP3 POP POP POP JUMP JUMPDEST PUSH1 0x80 MLOAD PUSH2 0x12BA PUSH2 0xBD PUSH1 0x0 CODECOPY PUSH1 0x0 DUP2 DUP2 PUSH1 0x60 ADD MSTORE DUP2 DUP2 PUSH2 0xD77 ADD MSTORE PUSH2 0xDFC ADD MSTORE PUSH2 0x12BA PUSH1 0x0 RETURN INVALID PUSH1 0x80 PUSH1 0x40 MSTORE CALLVALUE DUP1 ISZERO PUSH2 0x10 JUMPI PUSH1 0x0 DUP1 REVERT JUMPDEST POP PUSH1 0x4 CALLDATASIZE LT PUSH2 0x41 JUMPI PUSH1 0x0 CALLDATALOAD PUSH1 0xE0 SHR DUP1 PUSH4 0x253C8BD4 EQ PUSH2 0x46 JUMPI DUP1 PUSH4 0x68E0D4E1 EQ PUSH2 0x5B JUMPI DUP1 PUSH4 0xFE6B9B4C EQ PUSH2 0x9F JUMPI JUMPDEST PUSH1 0x0 DUP1 REVERT JUMPDEST PUSH2 0x59 PUSH2 0x54 CALLDATASIZE PUSH1 0x4 PUSH2 0xE94 JUMP JUMPDEST PUSH2 0xBF JUMP JUMPDEST STOP JUMPDEST PUSH2 0x82 PUSH32 0x0 DUP2 JUMP JUMPDEST PUSH1 0x40 MLOAD PUSH1 0x1 PUSH1 0x1 PUSH1 0xA0 SHL SUB SWAP1 SWAP2 AND DUP2 MSTORE PUSH1 0x20 ADD JUMPDEST PUSH1 0x40 MLOAD DUP1 SWAP2 SUB SWAP1 RETURN JUMPDEST PUSH2 0xB2 PUSH2 0xAD CALLDATASIZE PUSH1 0x4 PUSH2 0xEE6 JUMP JUMPDEST PUSH2 0x110 JUMP JUMPDEST PUSH1 0x40 MLOAD PUSH2 0x96 SWAP2 SWAP1 PUSH2 0xFC0 JUMP JUMPDEST PUSH1 0x0 SLOAD PUSH1 0x1 PUSH1 0x1 PUSH1 0xA0 SHL SUB AND CALLER EQ PUSH2 0xD6 JUMPI PUSH1 0x0 DUP1 REVERT JUMPDEST PUSH1 0x0 DUP1 SLOAD PUSH32 0xFFFFFFFFFFFFFFFFFFFFFFFF0000000000000000000000000000000000000000 AND PUSH1 0x1 PUSH1 0x1 PUSH1 0xA0 SHL SUB SWAP3 SWAP1 SWAP3 AND SWAP2 SWAP1 SWAP2 OR SWAP1 SSTORE JUMP JUMPDEST PUSH1 0x60 PUSH1 0x0 PUSH2 0x13C PUSH1 0x0 PUSH1 0x14 SWAP1 SLOAD SWAP1 PUSH2 0x100 EXP SWAP1 DIV PUSH1 0xFF AND DUP6 PUSH1 0xFF AND DUP6 MLOAD PUSH2 0x137 SWAP2 SWAP1 PUSH2 0x101A JUMP JUMPDEST PUSH2 0x8D6 JUMP JUMPDEST SWAP1 POP PUSH2 0x169 PUSH1 0x40 MLOAD DUP1 PUSH1 0x80 ADD PUSH1 0x40 MSTORE DUP1 PUSH1 0x60 DUP2 MSTORE PUSH1 0x20 ADD PUSH1 0x60 DUP2 MSTORE PUSH1 0x20 ADD PUSH1 0x60 DUP2 MSTORE PUSH1 0x20 ADD PUSH1 0x60 DUP2 MSTORE POP SWAP1 JUMP JUMPDEST DUP5 PUSH1 0xFF AND PUSH8 0xFFFFFFFFFFFFFFFF DUP2 GT ISZERO PUSH2 0x185 JUMPI PUSH2 0x185 PUSH2 0xEC0 JUMP JUMPDEST PUSH1 0x40 MLOAD SWAP1 DUP1 DUP3 MSTORE DUP1 PUSH1 0x20 MUL PUSH1 0x20 ADD DUP3 ADD PUSH1 0x40 MSTORE DUP1 ISZERO PUSH2 0x1AE JUMPI DUP2 PUSH1 0x20 ADD PUSH1 0x20 DUP3 MUL DUP1 CALLDATASIZE DUP4 CALLDATACOPY ADD SWAP1 POP JUMPDEST POP DUP2 MSTORE DUP4 MLOAD PUSH2 0x1C1 SWAP1 PUSH1 0xFF DUP8 AND SWAP1 PUSH2 0x101A JUMP JUMPDEST PUSH8 0xFFFFFFFFFFFFFFFF DUP2 GT ISZERO PUSH2 0x1D9 JUMPI PUSH2 0x1D9 PUSH2 0xEC0 JUMP JUMPDEST PUSH1 0x40 MLOAD SWAP1 DUP1 DUP3 MSTORE DUP1 PUSH1 0x20 MUL PUSH1 0x20 ADD DUP3 ADD PUSH1 0x40 MSTORE DUP1 ISZERO PUSH2 0x21E JUMPI DUP2 PUSH1 0x20 ADD JUMPDEST PUSH1 0x40 DUP1 MLOAD DUP1 DUP3 ADD SWAP1 SWAP2 MSTORE PUSH1 0x0 DUP1 DUP3 MSTORE PUSH1 0x20 DUP3 ADD MSTORE DUP2 MSTORE PUSH1 0x20 ADD SWAP1 PUSH1 0x1 SWAP1 SUB SWAP1 DUP2 PUSH2 0x1F7 JUMPI SWAP1 POP JUMPDEST POP PUSH1 0x20 DUP3 ADD MSTORE DUP4 MLOAD PUSH8 0xFFFFFFFFFFFFFFFF DUP2 GT ISZERO PUSH2 0x23E JUMPI PUSH2 0x23E PUSH2 0xEC0 JUMP JUMPDEST PUSH1 0x40 MLOAD SWAP1 DUP1 DUP3 MSTORE DUP1 PUSH1 0x20 MUL PUSH1 0x20 ADD DUP3 ADD PUSH1 0x40 MSTORE DUP1 ISZERO PUSH2 0x267 JUMPI DUP2 PUSH1 0x20 ADD PUSH1 0x20 DUP3 MUL DUP1 CALLDATASIZE DUP4 CALLDATACOPY ADD SWAP1 POP JUMPDEST POP PUSH1 0x40 DUP3 ADD MSTORE PUSH1 0x0 JUMPDEST DUP5 MLOAD DUP2 PUSH1 0xFF AND LT ISZERO PUSH2 0x333 JUMPI DUP5 DUP2 PUSH1 0xFF AND DUP2 MLOAD DUP2 LT PUSH2 0x291 JUMPI PUSH2 0x291 PUSH2 0x102D JUMP JUMPDEST PUSH1 0x20 MUL PUSH1 0x20 ADD ADD MLOAD PUSH1 0x1 PUSH1 0x1 PUSH1 0xA0 SHL SUB AND PUSH4 0x313CE567 PUSH1 0x40 MLOAD DUP2 PUSH4 0xFFFFFFFF AND PUSH1 0xE0 SHL DUP2 MSTORE PUSH1 0x4 ADD PUSH1 0x20 PUSH1 0x40 MLOAD DUP1 DUP4 SUB DUP2 DUP7 GAS STATICCALL ISZERO DUP1 ISZERO PUSH2 0x2D6 JUMPI RETURNDATASIZE PUSH1 0x0 DUP1 RETURNDATACOPY RETURNDATASIZE PUSH1 0x0 REVERT JUMPDEST POP POP POP POP PUSH1 0x40 MLOAD RETURNDATASIZE PUSH1 0x1F NOT PUSH1 0x1F DUP3 ADD AND DUP3 ADD DUP1 PUSH1 0x40 MSTORE POP DUP2 ADD SWAP1 PUSH2 0x2FA SWAP2 SWAP1 PUSH2 0x1043 JUMP JUMPDEST PUSH1 0xFF AND DUP3 PUSH1 0x40 ADD MLOAD DUP3 PUSH1 0xFF AND DUP2 MLOAD DUP2 LT PUSH2 0x316 JUMPI PUSH2 0x316 PUSH2 0x102D JUMP JUMPDEST PUSH1 0x20 SWAP1 DUP2 MUL SWAP2 SWAP1 SWAP2 ADD ADD MSTORE DUP1 PUSH2 0x32B DUP2 PUSH2 0x1060 JUMP JUMPDEST SWAP2 POP POP PUSH2 0x270 JUMP JUMPDEST POP PUSH1 0x0 JUMPDEST DUP6 PUSH1 0xFF AND DUP2 PUSH1 0xFF AND LT ISZERO PUSH2 0x8CA JUMPI PUSH1 0x40 DUP1 MLOAD PUSH1 0xA0 DUP2 ADD DUP3 MSTORE PUSH1 0x0 PUSH1 0x20 DUP3 ADD DUP2 SWAP1 MSTORE PUSH1 0x60 DUP3 ADD DUP2 SWAP1 MSTORE PUSH1 0x80 DUP3 ADD MSTORE PUSH1 0x1 DUP2 MSTORE PUSH1 0xFF DUP4 DUP2 AND SWAP3 DUP3 ADD SWAP3 SWAP1 SWAP3 MSTORE DUP7 MLOAD SWAP1 SWAP2 PUSH2 0x385 SWAP2 SWAP1 DUP10 AND SWAP1 PUSH2 0x101A JUMP JUMPDEST PUSH8 0xFFFFFFFFFFFFFFFF DUP2 GT ISZERO PUSH2 0x39D JUMPI PUSH2 0x39D PUSH2 0xEC0 JUMP JUMPDEST PUSH1 0x40 MLOAD SWAP1 DUP1 DUP3 MSTORE DUP1 PUSH1 0x20 MUL PUSH1 0x20 ADD DUP3 ADD PUSH1 0x40 MSTORE DUP1 ISZERO PUSH2 0x3C6 JUMPI DUP2 PUSH1 0x20 ADD PUSH1 0x20 DUP3 MUL DUP1 CALLDATASIZE DUP4 CALLDATACOPY ADD SWAP1 POP JUMPDEST POP PUSH1 0x60 DUP5 ADD MSTORE PUSH1 0x0 JUMPDEST DUP5 PUSH1 0xFF AND DUP2 PUSH1 0xFF AND LT ISZERO PUSH2 0x8B5 JUMPI PUSH1 0x40 DUP1 MLOAD PUSH1 0x60 DUP1 DUP3 ADD DUP4 MSTORE PUSH1 0x0 DUP1 DUP4 MSTORE PUSH1 0x20 DUP4 ADD DUP2 SWAP1 MSTORE SWAP3 DUP3 ADD DUP4 SWAP1 MSTORE DUP5 ADD SWAP2 SWAP1 SWAP2 MSTORE DUP9 JUMPDEST DUP9 MLOAD DUP2 PUSH1 0xFF AND LT ISZERO PUSH2 0x512 JUMPI PUSH1 0x0 PUSH1 0x80 DUP6 ADD DUP2 SWAP1 MSTORE JUMPDEST DUP4 PUSH1 0xFF AND DUP2 PUSH1 0xFF AND LT ISZERO PUSH2 0x471 JUMPI DUP2 PUSH1 0xFF AND DUP8 PUSH1 0x60 ADD MLOAD DUP3 PUSH1 0xFF AND DUP2 MLOAD DUP2 LT PUSH2 0x443 JUMPI PUSH2 0x443 PUSH2 0x102D JUMP JUMPDEST PUSH1 0x20 MUL PUSH1 0x20 ADD ADD MLOAD PUSH1 0xFF AND SUB PUSH2 0x45F JUMPI PUSH1 0x1 PUSH1 0x80 DUP7 ADD MSTORE PUSH2 0x471 JUMP JUMPDEST DUP1 PUSH2 0x469 DUP2 PUSH2 0x1060 JUMP JUMPDEST SWAP2 POP POP PUSH2 0x418 JUMP JUMPDEST POP DUP4 PUSH1 0x80 ADD MLOAD PUSH2 0x500 JUMPI PUSH1 0x0 PUSH2 0x4C8 DUP11 DUP7 PUSH1 0x40 ADD MLOAD PUSH1 0xFF AND DUP2 MLOAD DUP2 LT PUSH2 0x499 JUMPI PUSH2 0x499 PUSH2 0x102D JUMP JUMPDEST PUSH1 0x20 MUL PUSH1 0x20 ADD ADD MLOAD DUP12 DUP5 PUSH1 0xFF AND DUP2 MLOAD DUP2 LT PUSH2 0x4B6 JUMPI PUSH2 0x4B6 PUSH2 0x102D JUMP JUMPDEST PUSH1 0x20 MUL PUSH1 0x20 ADD ADD MLOAD DUP6 PUSH1 0x0 ADD MLOAD PUSH2 0x8F4 JUMP JUMPDEST DUP1 MLOAD SWAP1 SWAP2 POP ISZERO PUSH2 0x4FE JUMPI PUSH1 0x20 DUP1 DUP3 ADD MLOAD ISZERO ISZERO PUSH1 0x40 DUP1 DUP7 ADD SWAP2 SWAP1 SWAP2 MSTORE DUP3 ADD MLOAD DUP5 MSTORE PUSH1 0x60 DUP1 DUP4 ADD MLOAD SWAP2 DUP6 ADD SWAP2 SWAP1 SWAP2 MSTORE PUSH1 0xFF DUP4 AND SWAP1 DUP7 ADD MSTORE JUMPDEST POP JUMPDEST DUP1 PUSH2 0x50A DUP2 PUSH2 0x1060 JUMP JUMPDEST SWAP2 POP POP PUSH2 0x402 JUMP JUMPDEST POP DUP3 PUSH1 0x60 ADD MLOAD PUSH1 0xFF AND PUSH1 0x0 SUB PUSH2 0x54F JUMPI PUSH1 0x0 DUP6 PUSH1 0x0 ADD MLOAD DUP6 PUSH1 0xFF AND DUP2 MLOAD DUP2 LT PUSH2 0x53D JUMPI PUSH2 0x53D PUSH2 0x102D JUMP JUMPDEST PUSH1 0x20 MUL PUSH1 0x20 ADD ADD DUP2 DUP2 MSTORE POP POP POP PUSH2 0x8B5 JUMP JUMPDEST DUP1 PUSH1 0x40 ADD MLOAD ISZERO PUSH2 0x601 JUMPI PUSH2 0x5F7 DUP9 DUP5 PUSH1 0x40 ADD MLOAD PUSH1 0xFF AND DUP2 MLOAD DUP2 LT PUSH2 0x575 JUMPI PUSH2 0x575 PUSH2 0x102D JUMP JUMPDEST PUSH1 0x20 MUL PUSH1 0x20 ADD ADD MLOAD DUP10 DUP6 PUSH1 0x60 ADD MLOAD PUSH1 0xFF AND DUP2 MLOAD DUP2 LT PUSH2 0x596 JUMPI PUSH2 0x596 PUSH2 0x102D JUMP JUMPDEST PUSH1 0x20 MUL PUSH1 0x20 ADD ADD MLOAD DUP8 PUSH1 0x40 ADD MLOAD DUP7 PUSH1 0x60 ADD MLOAD PUSH1 0xFF AND DUP2 MLOAD DUP2 LT PUSH2 0x5BB JUMPI PUSH2 0x5BB PUSH2 0x102D JUMP JUMPDEST PUSH1 0x20 MUL PUSH1 0x20 ADD ADD MLOAD DUP9 PUSH1 0x40 ADD MLOAD DUP8 PUSH1 0x40 ADD MLOAD PUSH1 0xFF AND DUP2 MLOAD DUP2 LT PUSH2 0x5E0 JUMPI PUSH2 0x5E0 PUSH2 0x102D JUMP JUMPDEST PUSH1 0x20 MUL PUSH1 0x20 ADD ADD MLOAD PUSH2 0x5F2 SWAP2 SWAP1 PUSH2 0x107F JUMP JUMPDEST PUSH2 0x99D JUMP JUMPDEST PUSH1 0x20 DUP5 ADD MSTORE PUSH2 0x66D JUMP JUMPDEST PUSH2 0x667 DUP2 PUSH1 0x0 ADD MLOAD DUP3 PUSH1 0x20 ADD MLOAD DUP8 PUSH1 0x40 ADD MLOAD DUP7 PUSH1 0x60 ADD MLOAD PUSH1 0xFF AND DUP2 MLOAD DUP2 LT PUSH2 0x62B JUMPI PUSH2 0x62B PUSH2 0x102D JUMP JUMPDEST PUSH1 0x20 MUL PUSH1 0x20 ADD ADD MLOAD DUP9 PUSH1 0x40 ADD MLOAD DUP8 PUSH1 0x40 ADD MLOAD PUSH1 0xFF AND DUP2 MLOAD DUP2 LT PUSH2 0x650 JUMPI PUSH2 0x650 PUSH2 0x102D JUMP JUMPDEST PUSH1 0x20 MUL PUSH1 0x20 ADD ADD MLOAD PUSH2 0x662 SWAP2 SWAP1 PUSH2 0x107F JUMP JUMPDEST PUSH2 0xB62 JUMP JUMPDEST PUSH1 0x20 DUP5 ADD MSTORE JUMPDEST PUSH1 0x20 DUP4 ADD MLOAD DUP4 MLOAD DUP5 SWAP1 PUSH2 0x681 SWAP1 DUP4 SWAP1 PUSH2 0x10A6 JUMP JUMPDEST SWAP1 MSTORE POP PUSH1 0xFF DUP3 AND ISZERO PUSH2 0x6AB JUMPI PUSH8 0xDE0B6B3A7640000 DUP4 PUSH1 0x0 ADD DUP2 DUP2 MLOAD PUSH2 0x6A7 SWAP2 SWAP1 PUSH2 0x10BD JUMP JUMPDEST SWAP1 MSTORE POP JUMPDEST DUP9 PUSH1 0xFF AND DUP4 PUSH1 0x40 ADD MLOAD PUSH1 0xFF AND LT PUSH2 0x714 JUMPI PUSH1 0x40 MLOAD DUP1 PUSH1 0x40 ADD PUSH1 0x40 MSTORE DUP1 DUP5 PUSH1 0x60 ADD MLOAD PUSH1 0xFF AND DUP2 MSTORE PUSH1 0x20 ADD DUP5 PUSH1 0x20 ADD MLOAD DUP2 MSTORE POP DUP6 PUSH1 0x20 ADD MLOAD DUP11 DUP6 PUSH1 0x40 ADD MLOAD PUSH2 0x6F1 SWAP2 SWAP1 PUSH2 0x10DF JUMP JUMPDEST PUSH1 0xFF AND DUP2 MLOAD DUP2 LT PUSH2 0x704 JUMPI PUSH2 0x704 PUSH2 0x102D JUMP JUMPDEST PUSH1 0x20 MUL PUSH1 0x20 ADD ADD DUP2 SWAP1 MSTORE POP PUSH2 0x82F JUMP JUMPDEST PUSH1 0x0 DUP6 PUSH1 0x20 ADD MLOAD DUP11 DUP6 PUSH1 0x60 ADD MLOAD PUSH2 0x72B SWAP2 SWAP1 PUSH2 0x10DF JUMP JUMPDEST PUSH1 0xFF AND DUP2 MLOAD DUP2 LT PUSH2 0x73E JUMPI PUSH2 0x73E PUSH2 0x102D JUMP JUMPDEST PUSH1 0x20 MUL PUSH1 0x20 ADD ADD MLOAD PUSH1 0x20 ADD MLOAD GT ISZERO PUSH2 0x82F JUMPI JUMPDEST PUSH8 0xDE0B6B3A7640000 DUP6 PUSH1 0x20 ADD MLOAD DUP11 DUP6 PUSH1 0x60 ADD MLOAD PUSH2 0x76F SWAP2 SWAP1 PUSH2 0x10DF JUMP JUMPDEST PUSH1 0xFF AND DUP2 MLOAD DUP2 LT PUSH2 0x782 JUMPI PUSH2 0x782 PUSH2 0x102D JUMP JUMPDEST PUSH1 0x20 MUL PUSH1 0x20 ADD ADD MLOAD PUSH1 0x20 ADD MLOAD DUP5 PUSH1 0x0 ADD MLOAD PUSH2 0x79D SWAP2 SWAP1 PUSH2 0x10A6 JUMP JUMPDEST PUSH2 0x7A7 SWAP2 SWAP1 PUSH2 0x10BD JUMP JUMPDEST DUP4 MSTORE PUSH1 0x20 DUP6 ADD MLOAD PUSH1 0x60 DUP5 ADD MLOAD PUSH2 0x7BE SWAP1 DUP12 SWAP1 PUSH2 0x10DF JUMP JUMPDEST PUSH1 0xFF AND DUP2 MLOAD DUP2 LT PUSH2 0x7D1 JUMPI PUSH2 0x7D1 PUSH2 0x102D JUMP JUMPDEST PUSH1 0x20 SWAP1 DUP2 MUL SWAP2 SWAP1 SWAP2 ADD ADD MLOAD MLOAD PUSH1 0xFF AND PUSH1 0x60 DUP5 ADD MSTORE DUP8 MLOAD PUSH2 0x7F3 SWAP1 PUSH1 0x1 SWAP1 PUSH2 0x101A JUMP JUMPDEST DUP4 PUSH1 0x60 ADD MLOAD PUSH1 0xFF AND SUB PUSH2 0x82A JUMPI DUP3 MLOAD DUP6 MLOAD DUP1 MLOAD PUSH1 0xFF DUP8 AND SWAP1 DUP2 LT PUSH2 0x819 JUMPI PUSH2 0x819 PUSH2 0x102D JUMP JUMPDEST PUSH1 0x20 MUL PUSH1 0x20 ADD ADD DUP2 DUP2 MSTORE POP POP PUSH2 0x82F JUMP JUMPDEST PUSH2 0x751 JUMP JUMPDEST DUP3 PUSH1 0x60 ADD MLOAD DUP6 PUSH1 0x60 ADD MLOAD DUP4 PUSH1 0xFF AND DUP2 MLOAD DUP2 LT PUSH2 0x84D JUMPI PUSH2 0x84D PUSH2 0x102D JUMP JUMPDEST PUSH1 0x20 MUL PUSH1 0x20 ADD ADD SWAP1 PUSH1 0xFF AND SWAP1 DUP2 PUSH1 0xFF AND DUP2 MSTORE POP POP PUSH1 0x1 DUP9 MLOAD PUSH2 0x86F SWAP2 SWAP1 PUSH2 0x101A JUMP JUMPDEST DUP4 PUSH1 0x60 ADD MLOAD PUSH1 0xFF AND SUB PUSH2 0x895 JUMPI DUP3 MLOAD DUP6 MLOAD DUP1 MLOAD PUSH1 0xFF DUP8 AND SWAP1 DUP2 LT PUSH2 0x53D JUMPI PUSH2 0x53D PUSH2 0x102D JUMP JUMPDEST POP PUSH1 0x60 DUP3 ADD MLOAD PUSH1 0xFF AND PUSH1 0x40 DUP4 ADD MSTORE DUP1 PUSH2 0x8AD DUP2 PUSH2 0x1060 JUMP JUMPDEST SWAP2 POP POP PUSH2 0x3CF JUMP JUMPDEST POP POP DUP1 DUP1 PUSH2 0x8C2 SWAP1 PUSH2 0x1060 JUMP JUMPDEST SWAP2 POP POP PUSH2 0x337 JUMP JUMPDEST POP MLOAD SWAP2 POP POP JUMPDEST SWAP3 SWAP2 POP POP JUMP JUMPDEST PUSH1 0x0 DUP2 PUSH1 0xFF AND DUP4 PUSH1 0xFF AND LT PUSH2 0x8EB JUMPI DUP2 PUSH2 0x8ED JUMP JUMPDEST DUP3 JUMPDEST SWAP4 SWAP3 POP POP POP JUMP JUMPDEST PUSH1 0x40 DUP1 MLOAD PUSH1 0x80 DUP2 ADD DUP3 MSTORE PUSH1 0x0 DUP1 DUP3 MSTORE PUSH1 0x20 DUP3 ADD DUP2 SWAP1 MSTORE SWAP2 DUP2 ADD DUP3 SWAP1 MSTORE PUSH1 0x60 DUP2 ADD DUP3 SWAP1 MSTORE SWAP1 DUP1 PUSH2 0x924 DUP7 DUP7 DUP4 PUSH2 0xBE8 JUMP JUMPDEST SWAP2 POP SWAP2 POP PUSH1 0x0 DUP1 PUSH2 0x937 DUP9 DUP9 PUSH1 0x1 PUSH2 0xBE8 JUMP JUMPDEST SWAP1 SWAP3 POP SWAP1 POP DUP6 PUSH1 0x0 DUP1 DUP1 DUP4 DUP9 GT ISZERO PUSH2 0x956 JUMPI POP DUP7 SWAP3 POP DUP3 SWAP2 POP DUP6 SWAP1 POP PUSH1 0x0 JUMPDEST DUP4 DUP7 GT ISZERO PUSH2 0x96B JUMPI POP DUP5 SWAP3 POP DUP3 SWAP2 POP DUP4 SWAP1 POP PUSH1 0x1 JUMPDEST DUP10 DUP5 GT ISZERO PUSH2 0x98E JUMPI PUSH1 0x1 DUP10 MSTORE DUP1 ISZERO ISZERO PUSH1 0x20 DUP11 ADD MSTORE PUSH1 0x60 DUP10 ADD DUP3 SWAP1 MSTORE PUSH1 0x40 DUP10 ADD DUP4 SWAP1 MSTORE JUMPDEST POP POP POP POP POP POP POP POP SWAP4 SWAP3 POP POP POP JUMP JUMPDEST PUSH1 0x0 DUP1 DUP5 PUSH1 0x1 PUSH1 0x1 PUSH1 0xA0 SHL SUB AND PUSH4 0x313CE567 PUSH1 0x40 MLOAD DUP2 PUSH4 0xFFFFFFFF AND PUSH1 0xE0 SHL DUP2 MSTORE PUSH1 0x4 ADD PUSH1 0x20 PUSH1 0x40 MLOAD DUP1 DUP4 SUB DUP2 DUP7 GAS STATICCALL ISZERO DUP1 ISZERO PUSH2 0x9DE JUMPI RETURNDATASIZE PUSH1 0x0 DUP1 RETURNDATACOPY RETURNDATASIZE PUSH1 0x0 REVERT JUMPDEST POP POP POP POP PUSH1 0x40 MLOAD RETURNDATASIZE PUSH1 0x1F NOT PUSH1 0x1F DUP3 ADD AND DUP3 ADD DUP1 PUSH1 0x40 MSTORE POP DUP2 ADD SWAP1 PUSH2 0xA02 SWAP2 SWAP1 PUSH2 0x1043 JUMP JUMPDEST PUSH1 0xFF AND SWAP1 POP PUSH1 0x0 PUSH2 0xA15 DUP7 DUP7 PUSH1 0x1 PUSH2 0xCE0 JUMP JUMPDEST SWAP1 POP PUSH1 0x0 PUSH1 0x1 PUSH1 0x1 PUSH1 0xA0 SHL SUB DUP3 AND PUSH4 0xF140A35A PUSH2 0xA33 DUP6 PUSH1 0xA PUSH2 0x11DC JUMP JUMPDEST PUSH1 0x40 MLOAD PUSH32 0xFFFFFFFF00000000000000000000000000000000000000000000000000000000 PUSH1 0xE0 DUP5 SWAP1 SHL AND DUP2 MSTORE PUSH1 0x4 DUP2 ADD SWAP2 SWAP1 SWAP2 MSTORE PUSH1 0x1 PUSH1 0x1 PUSH1 0xA0 SHL SUB DUP11 AND PUSH1 0x24 DUP3 ADD MSTORE PUSH1 0x44 ADD PUSH1 0x20 PUSH1 0x40 MLOAD DUP1 DUP4 SUB DUP2 DUP7 GAS STATICCALL SWAP3 POP POP POP DUP1 ISZERO PUSH2 0xAB2 JUMPI POP PUSH1 0x40 DUP1 MLOAD PUSH1 0x1F RETURNDATASIZE SWAP1 DUP2 ADD PUSH1 0x1F NOT AND DUP3 ADD SWAP1 SWAP3 MSTORE PUSH2 0xAAF SWAP2 DUP2 ADD SWAP1 PUSH2 0x11E8 JUMP JUMPDEST PUSH1 0x1 JUMPDEST PUSH2 0xAC2 JUMPI PUSH1 0x0 SWAP4 POP POP POP POP PUSH2 0x8ED JUMP JUMPDEST SWAP1 POP PUSH1 0x0 DUP6 SLT ISZERO PUSH2 0xB19 JUMPI PUSH2 0xAD6 DUP6 PUSH2 0x1201 JUMP JUMPDEST PUSH2 0xAE1 SWAP1 PUSH1 0xA PUSH2 0x11DC JUMP JUMPDEST PUSH2 0xAEC DUP5 PUSH1 0xA PUSH2 0x11DC JUMP JUMPDEST PUSH2 0xAF6 SWAP2 SWAP1 PUSH2 0x10A6 JUMP JUMPDEST PUSH2 0xB08 DUP3 PUSH8 0xDE0B6B3A7640000 PUSH2 0x10A6 JUMP JUMPDEST PUSH2 0xB12 SWAP2 SWAP1 PUSH2 0x10BD JUMP JUMPDEST SWAP4 POP PUSH2 0xB58 JUMP JUMPDEST PUSH2 0xB24 DUP4 PUSH1 0xA PUSH2 0x11DC JUMP JUMPDEST PUSH2 0xB2F DUP7 PUSH1 0xA PUSH2 0x11DC JUMP JUMPDEST PUSH2 0xB39 SWAP1 DUP4 PUSH2 0x10A6 JUMP JUMPDEST PUSH2 0xB4B SWAP1 PUSH8 0xDE0B6B3A7640000 PUSH2 0x10A6 JUMP JUMPDEST PUSH2 0xB55 SWAP2 SWAP1 PUSH2 0x10BD JUMP JUMPDEST SWAP4 POP JUMPDEST POP POP POP SWAP4 SWAP3 POP POP POP JUMP JUMPDEST PUSH1 0x0 DUP1 DUP3 SLT ISZERO PUSH2 0xBAD JUMPI PUSH2 0xB75 DUP3 PUSH2 0x1201 JUMP JUMPDEST PUSH2 0xB80 SWAP1 PUSH1 0xA PUSH2 0x11DC JUMP JUMPDEST PUSH2 0xB8A SWAP1 DUP6 PUSH2 0x10A6 JUMP JUMPDEST PUSH2 0xB9C DUP5 PUSH8 0xDE0B6B3A7640000 PUSH2 0x10A6 JUMP JUMPDEST PUSH2 0xBA6 SWAP2 SWAP1 PUSH2 0x10BD JUMP JUMPDEST SWAP1 POP PUSH2 0x8ED JUMP JUMPDEST DUP4 DUP4 PUSH2 0xBBA DUP5 PUSH1 0xA PUSH2 0x11DC JUMP JUMPDEST PUSH2 0xBCC SWAP1 PUSH8 0xDE0B6B3A7640000 PUSH2 0x10A6 JUMP JUMPDEST PUSH2 0xBD6 SWAP2 SWAP1 PUSH2 0x10A6 JUMP JUMPDEST PUSH2 0xBE0 SWAP2 SWAP1 PUSH2 0x10BD JUMP JUMPDEST SWAP5 SWAP4 POP POP POP POP JUMP JUMPDEST PUSH1 0x0 DUP1 PUSH1 0x0 DUP1 DUP6 PUSH1 0x1 PUSH1 0x1 PUSH1 0xA0 SHL SUB AND DUP8 PUSH1 0x1 PUSH1 0x1 PUSH1 0xA0 SHL SUB AND LT PUSH2 0xC0E JUMPI DUP6 DUP8 PUSH2 0xC11 JUMP JUMPDEST DUP7 DUP7 JUMPDEST SWAP2 POP SWAP2 POP PUSH1 0x0 PUSH2 0xC22 DUP4 DUP4 DUP9 PUSH2 0xD21 JUMP JUMPDEST SWAP1 POP PUSH1 0x1 PUSH1 0x1 PUSH1 0xA0 SHL SUB DUP2 AND EXTCODESIZE PUSH2 0xC40 JUMPI PUSH1 0x0 SWAP5 POP PUSH1 0x0 SWAP4 POP PUSH2 0xCD5 JUMP JUMPDEST PUSH1 0x0 DUP1 DUP3 PUSH1 0x1 PUSH1 0x1 PUSH1 0xA0 SHL SUB AND PUSH4 0x902F1AC PUSH1 0x40 MLOAD DUP2 PUSH4 0xFFFFFFFF AND PUSH1 0xE0 SHL DUP2 MSTORE PUSH1 0x4 ADD PUSH1 0x60 PUSH1 0x40 MLOAD DUP1 DUP4 SUB DUP2 DUP7 GAS STATICCALL ISZERO DUP1 ISZERO PUSH2 0xC81 JUMPI RETURNDATASIZE PUSH1 0x0 DUP1 RETURNDATACOPY RETURNDATASIZE PUSH1 0x0 REVERT JUMPDEST POP POP POP POP PUSH1 0x40 MLOAD RETURNDATASIZE PUSH1 0x1F NOT PUSH1 0x1F DUP3 ADD AND DUP3 ADD DUP1 PUSH1 0x40 MSTORE POP DUP2 ADD SWAP1 PUSH2 0xCA5 SWAP2 SWAP1 PUSH2 0x1239 JUMP JUMPDEST POP SWAP2 POP SWAP2 POP DUP5 PUSH1 0x1 PUSH1 0x1 PUSH1 0xA0 SHL SUB AND DUP11 PUSH1 0x1 PUSH1 0x1 PUSH1 0xA0 SHL SUB AND EQ PUSH2 0xCCA JUMPI DUP1 DUP3 PUSH2 0xCCD JUMP JUMPDEST DUP2 DUP2 JUMPDEST SWAP1 SWAP8 POP SWAP6 POP POP POP JUMPDEST POP POP POP SWAP4 POP SWAP4 SWAP2 POP POP JUMP JUMPDEST PUSH1 0x0 DUP1 PUSH1 0x0 DUP5 PUSH1 0x1 PUSH1 0x1 PUSH1 0xA0 SHL SUB AND DUP7 PUSH1 0x1 PUSH1 0x1 PUSH1 0xA0 SHL SUB AND LT PUSH2 0xD05 JUMPI DUP5 DUP7 PUSH2 0xD08 JUMP JUMPDEST DUP6 DUP6 JUMPDEST SWAP2 POP SWAP2 POP PUSH2 0xD17 DUP3 DUP3 DUP7 PUSH2 0xD21 JUMP JUMPDEST SWAP7 SWAP6 POP POP POP POP POP POP JUMP JUMPDEST PUSH1 0x40 MLOAD PUSH12 0xFFFFFFFFFFFFFFFFFFFFFFFF NOT PUSH1 0x60 DUP6 DUP2 SHL DUP3 AND PUSH1 0x20 DUP5 ADD MSTORE DUP5 SWAP1 SHL AND PUSH1 0x34 DUP3 ADD MSTORE DUP2 ISZERO ISZERO PUSH1 0xF8 SHL PUSH1 0x48 DUP3 ADD MSTORE PUSH1 0x0 SWAP1 DUP2 SWAP1 PUSH1 0x49 ADD PUSH1 0x40 MLOAD PUSH1 0x20 DUP2 DUP4 SUB SUB DUP2 MSTORE SWAP1 PUSH1 0x40 MSTORE DUP1 MLOAD SWAP1 PUSH1 0x20 ADD KECCAK256 SWAP1 POP PUSH2 0xE73 PUSH32 0x0 PUSH1 0x1 PUSH1 0x1 PUSH1 0xA0 SHL SUB AND PUSH4 0x5C60DA1B PUSH1 0x40 MLOAD DUP2 PUSH4 0xFFFFFFFF AND PUSH1 0xE0 SHL DUP2 MSTORE PUSH1 0x4 ADD PUSH1 0x20 PUSH1 0x40 MLOAD DUP1 DUP4 SUB DUP2 DUP7 GAS STATICCALL ISZERO DUP1 ISZERO PUSH2 0xDD3 JUMPI RETURNDATASIZE PUSH1 0x0 DUP1 RETURNDATACOPY RETURNDATASIZE PUSH1 0x0 REVERT JUMPDEST POP POP POP POP PUSH1 0x40 MLOAD RETURNDATASIZE PUSH1 0x1F NOT PUSH1 0x1F DUP3 ADD AND DUP3 ADD DUP1 PUSH1 0x40 MSTORE POP DUP2 ADD SWAP1 PUSH2 0xDF7 SWAP2 SWAP1 PUSH2 0x1267 JUMP JUMPDEST PUSH1 0x40 MLOAD PUSH32 0x0 PUSH1 0x38 DUP3 ADD MSTORE PUSH16 0x5AF43D82803E903D91602B57FD5BF3FF PUSH1 0x24 DUP3 ADD MSTORE PUSH1 0x14 DUP2 ADD SWAP2 SWAP1 SWAP2 MSTORE PUSH20 0x3D602D80600A3D3981F3363D3D373D3D3D363D73 DUP2 MSTORE PUSH1 0x58 DUP2 ADD DUP4 SWAP1 MSTORE PUSH1 0x37 PUSH1 0xC DUP3 ADD KECCAK256 PUSH1 0x78 DUP3 ADD MSTORE PUSH1 0x55 PUSH1 0x43 SWAP1 SWAP2 ADD KECCAK256 SWAP1 JUMP JUMPDEST SWAP6 SWAP5 POP POP POP POP POP JUMP JUMPDEST PUSH1 0x1 PUSH1 0x1 PUSH1 0xA0 SHL SUB DUP2 AND DUP2 EQ PUSH2 0xE91 JUMPI PUSH1 0x0 DUP1 REVERT JUMPDEST POP JUMP JUMPDEST PUSH1 0x0 PUSH1 0x20 DUP3 DUP5 SUB SLT ISZERO PUSH2 0xEA6 JUMPI PUSH1 0x0 DUP1 REVERT JUMPDEST DUP2 CALLDATALOAD PUSH2 0x8ED DUP2 PUSH2 0xE7C JUMP JUMPDEST PUSH1 0xFF DUP2 AND DUP2 EQ PUSH2 0xE91 JUMPI PUSH1 0x0 DUP1 REVERT JUMPDEST PUSH4 0x4E487B71 PUSH1 0xE0 SHL PUSH1 0x0 MSTORE PUSH1 0x41 PUSH1 0x4 MSTORE PUSH1 0x24 PUSH1 0x0 REVERT JUMPDEST DUP1 CALLDATALOAD PUSH2 0xEE1 DUP2 PUSH2 0xE7C JUMP JUMPDEST SWAP2 SWAP1 POP JUMP JUMPDEST PUSH1 0x0 DUP1 PUSH1 0x40 DUP4 DUP6 SUB SLT ISZERO PUSH2 0xEF9 JUMPI PUSH1 0x0 DUP1 REVERT JUMPDEST DUP3 CALLDATALOAD PUSH2 0xF04 DUP2 PUSH2 0xEB1 JUMP JUMPDEST SWAP2 POP PUSH1 0x20 DUP4 DUP2 ADD CALLDATALOAD PUSH8 0xFFFFFFFFFFFFFFFF DUP1 DUP3 GT ISZERO PUSH2 0xF22 JUMPI PUSH1 0x0 DUP1 REVERT JUMPDEST DUP2 DUP7 ADD SWAP2 POP DUP7 PUSH1 0x1F DUP4 ADD SLT PUSH2 0xF36 JUMPI PUSH1 0x0 DUP1 REVERT JUMPDEST DUP2 CALLDATALOAD DUP2 DUP2 GT ISZERO PUSH2 0xF48 JUMPI PUSH2 0xF48 PUSH2 0xEC0 JUMP JUMPDEST DUP1 PUSH1 0x5 SHL PUSH1 0x40 MLOAD PUSH1 0x1F NOT PUSH1 0x3F DUP4 ADD AND DUP2 ADD DUP2 DUP2 LT DUP6 DUP3 GT OR ISZERO PUSH2 0xF6D JUMPI PUSH2 0xF6D PUSH2 0xEC0 JUMP JUMPDEST PUSH1 0x40 MSTORE SWAP2 DUP3 MSTORE DUP5 DUP3 ADD SWAP3 POP DUP4 DUP2 ADD DUP6 ADD SWAP2 DUP10 DUP4 GT ISZERO PUSH2 0xF8B JUMPI PUSH1 0x0 DUP1 REVERT JUMPDEST SWAP4 DUP6 ADD SWAP4 JUMPDEST DUP3 DUP6 LT ISZERO PUSH2 0xFB0 JUMPI PUSH2 0xFA1 DUP6 PUSH2 0xED6 JUMP JUMPDEST DUP5 MSTORE SWAP4 DUP6 ADD SWAP4 SWAP3 DUP6 ADD SWAP3 PUSH2 0xF90 JUMP JUMPDEST DUP1 SWAP7 POP POP POP POP POP POP POP SWAP3 POP SWAP3 SWAP1 POP JUMP JUMPDEST PUSH1 0x20 DUP1 DUP3 MSTORE DUP3 MLOAD DUP3 DUP3 ADD DUP2 SWAP1 MSTORE PUSH1 0x0 SWAP2 SWAP1 DUP5 DUP3 ADD SWAP1 PUSH1 0x40 DUP6 ADD SWAP1 DUP5 JUMPDEST DUP2 DUP2 LT ISZERO PUSH2 0xFF8 JUMPI DUP4 MLOAD DUP4 MSTORE SWAP3 DUP5 ADD SWAP3 SWAP2 DUP5 ADD SWAP2 PUSH1 0x1 ADD PUSH2 0xFDC JUMP JUMPDEST POP SWAP1 SWAP7 SWAP6 POP POP POP POP POP POP JUMP JUMPDEST PUSH4 0x4E487B71 PUSH1 0xE0 SHL PUSH1 0x0 MSTORE PUSH1 0x11 PUSH1 0x4 MSTORE PUSH1 0x24 PUSH1 0x0 REVERT JUMPDEST DUP2 DUP2 SUB DUP2 DUP2 GT ISZERO PUSH2 0x8D0 JUMPI PUSH2 0x8D0 PUSH2 0x1004 JUMP JUMPDEST PUSH4 0x4E487B71 PUSH1 0xE0 SHL PUSH1 0x0 MSTORE PUSH1 0x32 PUSH1 0x4 MSTORE PUSH1 0x24 PUSH1 0x0 REVERT JUMPDEST PUSH1 0x0 PUSH1 0x20 DUP3 DUP5 SUB SLT ISZERO PUSH2 0x1055 JUMPI PUSH1 0x0 DUP1 REVERT JUMPDEST DUP2 MLOAD PUSH2 0x8ED DUP2 PUSH2 0xEB1 JUMP JUMPDEST PUSH1 0x0 PUSH1 0xFF DUP3 AND PUSH1 0xFF DUP2 SUB PUSH2 0x1076 JUMPI PUSH2 0x1076 PUSH2 0x1004 JUMP JUMPDEST PUSH1 0x1 ADD SWAP3 SWAP2 POP POP JUMP JUMPDEST DUP2 DUP2 SUB PUSH1 0x0 DUP4 SLT DUP1 ISZERO DUP4 DUP4 SGT AND DUP4 DUP4 SLT DUP3 AND OR ISZERO PUSH2 0x109F JUMPI PUSH2 0x109F PUSH2 0x1004 JUMP JUMPDEST POP SWAP3 SWAP2 POP POP JUMP JUMPDEST DUP1 DUP3 MUL DUP2 ISZERO DUP3 DUP3 DIV DUP5 EQ OR PUSH2 0x8D0 JUMPI PUSH2 0x8D0 PUSH2 0x1004 JUMP JUMPDEST PUSH1 0x0 DUP3 PUSH2 0x10DA JUMPI PUSH4 0x4E487B71 PUSH1 0xE0 SHL PUSH1 0x0 MSTORE PUSH1 0x12 PUSH1 0x4 MSTORE PUSH1 0x24 PUSH1 0x0 REVERT JUMPDEST POP DIV SWAP1 JUMP JUMPDEST PUSH1 0xFF DUP3 DUP2 AND DUP3 DUP3 AND SUB SWAP1 DUP2 GT ISZERO PUSH2 0x8D0 JUMPI PUSH2 0x8D0 PUSH2 0x1004 JUMP JUMPDEST PUSH1 0x1 DUP2 DUP2 JUMPDEST DUP1 DUP6 GT ISZERO PUSH2 0x1133 JUMPI DUP2 PUSH1 0x0 NOT DIV DUP3 GT ISZERO PUSH2 0x1119 JUMPI PUSH2 0x1119 PUSH2 0x1004 JUMP JUMPDEST DUP1 DUP6 AND ISZERO PUSH2 0x1126 JUMPI SWAP2 DUP2 MUL SWAP2 JUMPDEST SWAP4 DUP5 SHR SWAP4 SWAP1 DUP1 MUL SWAP1 PUSH2 0x10FD JUMP JUMPDEST POP SWAP3 POP SWAP3 SWAP1 POP JUMP JUMPDEST PUSH1 0x0 DUP3 PUSH2 0x114A JUMPI POP PUSH1 0x1 PUSH2 0x8D0 JUMP JUMPDEST DUP2 PUSH2 0x1157 JUMPI POP PUSH1 0x0 PUSH2 0x8D0 JUMP JUMPDEST DUP2 PUSH1 0x1 DUP2 EQ PUSH2 0x116D JUMPI PUSH1 0x2 DUP2 EQ PUSH2 0x1177 JUMPI PUSH2 0x1193 JUMP JUMPDEST PUSH1 0x1 SWAP2 POP POP PUSH2 0x8D0 JUMP JUMPDEST PUSH1 0xFF DUP5 GT ISZERO PUSH2 0x1188 JUMPI PUSH2 0x1188 PUSH2 0x1004 JUMP JUMPDEST POP POP PUSH1 0x1 DUP3 SHL PUSH2 0x8D0 JUMP JUMPDEST POP PUSH1 0x20 DUP4 LT PUSH2 0x133 DUP4 LT AND PUSH1 0x4E DUP5 LT PUSH1 0xB DUP5 LT AND OR ISZERO PUSH2 0x11B6 JUMPI POP DUP2 DUP2 EXP PUSH2 0x8D0 JUMP JUMPDEST PUSH2 0x11C0 DUP4 DUP4 PUSH2 0x10F8 JUMP JUMPDEST DUP1 PUSH1 0x0 NOT DIV DUP3 GT ISZERO PUSH2 0x11D4 JUMPI PUSH2 0x11D4 PUSH2 0x1004 JUMP JUMPDEST MUL SWAP4 SWAP3 POP POP POP JUMP JUMPDEST PUSH1 0x0 PUSH2 0x8ED DUP4 DUP4 PUSH2 0x113B JUMP JUMPDEST PUSH1 0x0 PUSH1 0x20 DUP3 DUP5 SUB SLT ISZERO PUSH2 0x11FA JUMPI PUSH1 0x0 DUP1 REVERT JUMPDEST POP MLOAD SWAP2 SWAP1 POP JUMP JUMPDEST PUSH1 0x0 PUSH32 0x8000000000000000000000000000000000000000000000000000000000000000 DUP3 SUB PUSH2 0x1232 JUMPI PUSH2 0x1232 PUSH2 0x1004 JUMP JUMPDEST POP PUSH1 0x0 SUB SWAP1 JUMP JUMPDEST PUSH1 0x0 DUP1 PUSH1 0x0 PUSH1 0x60 DUP5 DUP7 SUB SLT ISZERO PUSH2 0x124E JUMPI PUSH1 0x0 DUP1 REVERT JUMPDEST DUP4 MLOAD SWAP3 POP PUSH1 0x20 DUP5 ADD MLOAD SWAP2 POP PUSH1 0x40 DUP5 ADD MLOAD SWAP1 POP SWAP3 POP SWAP3 POP SWAP3 JUMP JUMPDEST PUSH1 0x0 PUSH1 0x20 DUP3 DUP5 SUB SLT ISZERO PUSH2 0x1279 JUMPI PUSH1 0x0 DUP1 REVERT JUMPDEST DUP2 MLOAD PUSH2 0x8ED DUP2 PUSH2 0xE7C JUMP INVALID LOG2 PUSH5 0x6970667358 0x22 SLT KECCAK256 PUSH20 0xEB32ADE78707D95C83F7E4BD17A416AA907D5441 CODESIZE DUP13 STATICCALL DUP1 PUSH4 0x2509B8CF DUP1 STATICCALL PUSH5 0x736F6C6343 STOP ADDMOD EQ STOP CALLER "
        },
        "methodIdentifiers": {
          "change_owner(address)": "253c8bd4",
          "factoryV2()": "68e0d4e1",
          "getManyRatesWithConnectors(uint8,address[])": "fe6b9b4c"
        }
      }
    }
  }
}